{
	"NOTAS/notas.sol": {
		"notas": {
			"abi": [
				{
					"anonymous": false,
					"inputs": [
						{
							"indexed": false,
							"internalType": "bytes32",
							"name": "",
							"type": "bytes32"
						}
					],
					"name": "alumno_evalueado",
					"type": "event"
				},
				{
					"anonymous": false,
					"inputs": [
						{
							"indexed": false,
							"internalType": "string",
							"name": "",
							"type": "string"
						}
					],
					"name": "evento_revision",
					"type": "event"
				},
				{
					"inputs": [
						{
							"internalType": "string",
							"name": "_idAlumno",
							"type": "string"
						},
						{
							"internalType": "uint256",
							"name": "_nota",
							"type": "uint256"
						}
					],
					"name": "Evaluar",
					"outputs": [],
					"stateMutability": "nonpayable",
					"type": "function"
				},
				{
					"inputs": [
						{
							"internalType": "string",
							"name": "_idAlumno",
							"type": "string"
						}
					],
					"name": "Revision",
					"outputs": [],
					"stateMutability": "nonpayable",
					"type": "function"
				},
				{
					"inputs": [
						{
							"internalType": "string",
							"name": "_idAlumno",
							"type": "string"
						}
					],
					"name": "VerNotas",
					"outputs": [
						{
							"internalType": "uint256",
							"name": "",
							"type": "uint256"
						}
					],
					"stateMutability": "view",
					"type": "function"
				},
				{
					"inputs": [],
					"name": "VerSolicitudes",
					"outputs": [
						{
							"internalType": "string[]",
							"name": "",
							"type": "string[]"
						}
					],
					"stateMutability": "view",
					"type": "function"
				},
				{
					"inputs": [],
					"name": "profesor",
					"outputs": [
						{
							"internalType": "address",
							"name": "",
							"type": "address"
						}
					],
					"stateMutability": "view",
					"type": "function"
				}
			],
			"devdoc": {
				"kind": "dev",
				"methods": {},
				"version": 1
			},
			"evm": {
				"assembly": "    /* \"NOTAS/notas.sol\":103:2148  contract notas {\r... */\n  mstore(0x40, 0x80)\n    /* \"NOTAS/notas.sol\":184:194  msg.sender */\n  caller\n    /* \"NOTAS/notas.sol\":158:194  address public profesor = msg.sender */\n  0x00\n  dup1\n  0x0100\n  exp\n  dup2\n  sload\n  dup2\n  0xffffffffffffffffffffffffffffffffffffffff\n  mul\n  not\n  and\n  swap1\n  dup4\n  0xffffffffffffffffffffffffffffffffffffffff\n  and\n  mul\n  or\n  swap1\n  sstore\n  pop\n    /* \"NOTAS/notas.sol\":103:2148  contract notas {\r... */\n  callvalue\n  dup1\n  iszero\n  tag_1\n  jumpi\n  0x00\n  dup1\n  revert\ntag_1:\n  pop\n  dataSize(sub_0)\n  dup1\n  dataOffset(sub_0)\n  0x00\n  codecopy\n  0x00\n  return\nstop\n\nsub_0: assembly {\n        /* \"NOTAS/notas.sol\":103:2148  contract notas {\r... */\n      mstore(0x40, 0x80)\n      callvalue\n      dup1\n      iszero\n      tag_1\n      jumpi\n      0x00\n      dup1\n      revert\n    tag_1:\n      pop\n      jumpi(tag_2, lt(calldatasize, 0x04))\n      shr(0xe0, calldataload(0x00))\n      dup1\n      0x040d9f60\n      eq\n      tag_3\n      jumpi\n      dup1\n      0x2cd22cd8\n      eq\n      tag_4\n      jumpi\n      dup1\n      0x33731af6\n      eq\n      tag_5\n      jumpi\n      dup1\n      0xa03a4959\n      eq\n      tag_6\n      jumpi\n      dup1\n      0xdf096576\n      eq\n      tag_7\n      jumpi\n    tag_2:\n      0x00\n      dup1\n      revert\n        /* \"NOTAS/notas.sol\":546:967  function Evaluar(string memory _idAlumno, uint _nota) public UnicamenteProfesor(msg.sender){\r... */\n    tag_3:\n      tag_8\n      0x04\n      dup1\n      calldatasize\n      sub\n      dup2\n      add\n      swap1\n      tag_9\n      swap2\n      swap1\n      tag_10\n      jump\t// in\n    tag_9:\n      tag_11\n      jump\t// in\n    tag_8:\n      stop\n        /* \"NOTAS/notas.sol\":1683:1914  function Revision(string memory _idAlumno) public {\r... */\n    tag_4:\n      tag_12\n      0x04\n      dup1\n      calldatasize\n      sub\n      dup2\n      add\n      swap1\n      tag_13\n      swap2\n      swap1\n      tag_14\n      jump\t// in\n    tag_13:\n      tag_15\n      jump\t// in\n    tag_12:\n      stop\n        /* \"NOTAS/notas.sol\":1345:1628  function VerNotas(string memory _idAlumno) public view returns(uint){\r... */\n    tag_5:\n      tag_16\n      0x04\n      dup1\n      calldatasize\n      sub\n      dup2\n      add\n      swap1\n      tag_17\n      swap2\n      swap1\n      tag_14\n      jump\t// in\n    tag_17:\n      tag_18\n      jump\t// in\n    tag_16:\n      mload(0x40)\n      tag_19\n      swap2\n      swap1\n      tag_20\n      jump\t// in\n    tag_19:\n      mload(0x40)\n      dup1\n      swap2\n      sub\n      swap1\n      return\n        /* \"NOTAS/notas.sol\":1961:2145  function VerSolicitudes() public view UnicamenteProfesor(msg.sender) returns(string[] memory){\r... */\n    tag_6:\n      tag_21\n      tag_22\n      jump\t// in\n    tag_21:\n      mload(0x40)\n      tag_23\n      swap2\n      swap1\n      tag_24\n      jump\t// in\n    tag_23:\n      mload(0x40)\n      dup1\n      swap2\n      sub\n      swap1\n      return\n        /* \"NOTAS/notas.sol\":158:194  address public profesor = msg.sender */\n    tag_7:\n      tag_25\n      tag_26\n      jump\t// in\n    tag_25:\n      mload(0x40)\n      tag_27\n      swap2\n      swap1\n      tag_28\n      jump\t// in\n    tag_27:\n      mload(0x40)\n      dup1\n      swap2\n      sub\n      swap1\n      return\n        /* \"NOTAS/notas.sol\":546:967  function Evaluar(string memory _idAlumno, uint _nota) public UnicamenteProfesor(msg.sender){\r... */\n    tag_11:\n        /* \"NOTAS/notas.sol\":626:636  msg.sender */\n      caller\n        /* \"NOTAS/notas.sol\":1210:1220  _direccion */\n      dup1\n        /* \"NOTAS/notas.sol\":1198:1220  profesor == _direccion */\n      0xffffffffffffffffffffffffffffffffffffffff\n      and\n        /* \"NOTAS/notas.sol\":1198:1206  profesor */\n      0x00\n      dup1\n      sload\n      swap1\n      0x0100\n      exp\n      swap1\n      div\n      0xffffffffffffffffffffffffffffffffffffffff\n      and\n        /* \"NOTAS/notas.sol\":1198:1220  profesor == _direccion */\n      0xffffffffffffffffffffffffffffffffffffffff\n      and\n      eq\n        /* \"NOTAS/notas.sol\":1190:1269  require(profesor == _direccion, \"No tienes permiso para ejecutar esta funcion\") */\n      tag_30\n      jumpi\n      mload(0x40)\n      0x08c379a000000000000000000000000000000000000000000000000000000000\n      dup2\n      mstore\n      0x04\n      add\n      tag_31\n      swap1\n      tag_32\n      jump\t// in\n    tag_31:\n      mload(0x40)\n      dup1\n      swap2\n      sub\n      swap1\n      revert\n    tag_30:\n        /* \"NOTAS/notas.sol\":699:720  bytes32 hash_idAlumno */\n      0x00\n        /* \"NOTAS/notas.sol\":750:759  _idAlumno */\n      dup4\n        /* \"NOTAS/notas.sol\":733:760  abi.encodePacked(_idAlumno) */\n      add(0x20, mload(0x40))\n      tag_34\n      swap2\n      swap1\n      tag_35\n      jump\t// in\n    tag_34:\n      mload(0x40)\n      0x20\n      dup2\n      dup4\n      sub\n      sub\n      dup2\n      mstore\n      swap1\n      0x40\n      mstore\n        /* \"NOTAS/notas.sol\":723:761  keccak256(abi.encodePacked(_idAlumno)) */\n      dup1\n      mload\n      swap1\n      0x20\n      add\n      keccak256\n        /* \"NOTAS/notas.sol\":699:761  bytes32 hash_idAlumno = keccak256(abi.encodePacked(_idAlumno)) */\n      swap1\n      pop\n        /* \"NOTAS/notas.sol\":874:879  _nota */\n      dup3\n        /* \"NOTAS/notas.sol\":851:856  Notas */\n      0x01\n        /* \"NOTAS/notas.sol\":851:871  Notas[hash_idAlumno] */\n      0x00\n        /* \"NOTAS/notas.sol\":857:870  hash_idAlumno */\n      dup4\n        /* \"NOTAS/notas.sol\":851:871  Notas[hash_idAlumno] */\n      dup2\n      mstore\n      0x20\n      add\n      swap1\n      dup2\n      mstore\n      0x20\n      add\n      0x00\n      keccak256\n        /* \"NOTAS/notas.sol\":851:879  Notas[hash_idAlumno] = _nota */\n      dup2\n      swap1\n      sstore\n      pop\n        /* \"NOTAS/notas.sol\":928:959  alumno_evalueado(hash_idAlumno) */\n      0xe04be7c051a61de1d1048634504027f18fbc1c23c5d3cdf1f27a826cbf31e05c\n        /* \"NOTAS/notas.sol\":945:958  hash_idAlumno */\n      dup2\n        /* \"NOTAS/notas.sol\":928:959  alumno_evalueado(hash_idAlumno) */\n      mload(0x40)\n      tag_36\n      swap2\n      swap1\n      tag_37\n      jump\t// in\n    tag_36:\n      mload(0x40)\n      dup1\n      swap2\n      sub\n      swap1\n      log1\n        /* \"NOTAS/notas.sol\":637:967  {\r... */\n      pop\n        /* \"NOTAS/notas.sol\":546:967  function Evaluar(string memory _idAlumno, uint _nota) public UnicamenteProfesor(msg.sender){\r... */\n      pop\n      pop\n      pop\n      jump\t// out\n        /* \"NOTAS/notas.sol\":1683:1914  function Revision(string memory _idAlumno) public {\r... */\n    tag_15:\n        /* \"NOTAS/notas.sol\":1796:1806  revisiones */\n      0x02\n        /* \"NOTAS/notas.sol\":1812:1821  _idAlumno */\n      dup2\n        /* \"NOTAS/notas.sol\":1796:1822  revisiones.push(_idAlumno) */\n      swap1\n      dup1\n      0x01\n      dup2\n      sload\n      add\n      dup1\n      dup3\n      sstore\n      dup1\n      swap2\n      pop\n      pop\n      0x01\n      swap1\n      sub\n      swap1\n      0x00\n      mstore\n      keccak256(0x00, 0x20)\n      add\n      0x00\n      swap1\n      swap2\n      swap1\n      swap2\n      swap1\n      swap2\n      pop\n      swap1\n      dup1\n      mload\n      swap1\n      0x20\n      add\n      swap1\n      tag_40\n      swap3\n      swap2\n      swap1\n      tag_41\n      jump\t// in\n    tag_40:\n      pop\n        /* \"NOTAS/notas.sol\":1880:1906  evento_revision(_idAlumno) */\n      0xafd73f39162aa4c0421f362f3a3d26f44b23c73253256cfc1c68794b0973e0a0\n        /* \"NOTAS/notas.sol\":1896:1905  _idAlumno */\n      dup2\n        /* \"NOTAS/notas.sol\":1880:1906  evento_revision(_idAlumno) */\n      mload(0x40)\n      tag_42\n      swap2\n      swap1\n      tag_43\n      jump\t// in\n    tag_42:\n      mload(0x40)\n      dup1\n      swap2\n      sub\n      swap1\n      log1\n        /* \"NOTAS/notas.sol\":1683:1914  function Revision(string memory _idAlumno) public {\r... */\n      pop\n      jump\t// out\n        /* \"NOTAS/notas.sol\":1345:1628  function VerNotas(string memory _idAlumno) public view returns(uint){\r... */\n    tag_18:\n        /* \"NOTAS/notas.sol\":1408:1412  uint */\n      0x00\n        /* \"NOTAS/notas.sol\":1473:1494  bytes32 hash_idAlumno */\n      dup1\n        /* \"NOTAS/notas.sol\":1524:1533  _idAlumno */\n      dup3\n        /* \"NOTAS/notas.sol\":1507:1534  abi.encodePacked(_idAlumno) */\n      add(0x20, mload(0x40))\n      tag_45\n      swap2\n      swap1\n      tag_35\n      jump\t// in\n    tag_45:\n      mload(0x40)\n      0x20\n      dup2\n      dup4\n      sub\n      sub\n      dup2\n      mstore\n      swap1\n      0x40\n      mstore\n        /* \"NOTAS/notas.sol\":1497:1535  keccak256(abi.encodePacked(_idAlumno)) */\n      dup1\n      mload\n      swap1\n      0x20\n      add\n      keccak256\n        /* \"NOTAS/notas.sol\":1473:1535  bytes32 hash_idAlumno = keccak256(abi.encodePacked(_idAlumno)) */\n      swap1\n      pop\n        /* \"NOTAS/notas.sol\":1600:1605  Notas */\n      0x01\n        /* \"NOTAS/notas.sol\":1600:1620  Notas[hash_idAlumno] */\n      0x00\n        /* \"NOTAS/notas.sol\":1606:1619  hash_idAlumno */\n      dup3\n        /* \"NOTAS/notas.sol\":1600:1620  Notas[hash_idAlumno] */\n      dup2\n      mstore\n      0x20\n      add\n      swap1\n      dup2\n      mstore\n      0x20\n      add\n      0x00\n      keccak256\n      sload\n        /* \"NOTAS/notas.sol\":1593:1620  return Notas[hash_idAlumno] */\n      swap2\n      pop\n      pop\n        /* \"NOTAS/notas.sol\":1345:1628  function VerNotas(string memory _idAlumno) public view returns(uint){\r... */\n      swap2\n      swap1\n      pop\n      jump\t// out\n        /* \"NOTAS/notas.sol\":1961:2145  function VerSolicitudes() public view UnicamenteProfesor(msg.sender) returns(string[] memory){\r... */\n    tag_22:\n        /* \"NOTAS/notas.sol\":2038:2053  string[] memory */\n      0x60\n        /* \"NOTAS/notas.sol\":2018:2028  msg.sender */\n      caller\n        /* \"NOTAS/notas.sol\":1210:1220  _direccion */\n      dup1\n        /* \"NOTAS/notas.sol\":1198:1220  profesor == _direccion */\n      0xffffffffffffffffffffffffffffffffffffffff\n      and\n        /* \"NOTAS/notas.sol\":1198:1206  profesor */\n      0x00\n      dup1\n      sload\n      swap1\n      0x0100\n      exp\n      swap1\n      div\n      0xffffffffffffffffffffffffffffffffffffffff\n      and\n        /* \"NOTAS/notas.sol\":1198:1220  profesor == _direccion */\n      0xffffffffffffffffffffffffffffffffffffffff\n      and\n      eq\n        /* \"NOTAS/notas.sol\":1190:1269  require(profesor == _direccion, \"No tienes permiso para ejecutar esta funcion\") */\n      tag_47\n      jumpi\n      mload(0x40)\n      0x08c379a000000000000000000000000000000000000000000000000000000000\n      dup2\n      mstore\n      0x04\n      add\n      tag_48\n      swap1\n      tag_32\n      jump\t// in\n    tag_48:\n      mload(0x40)\n      dup1\n      swap2\n      sub\n      swap1\n      revert\n    tag_47:\n        /* \"NOTAS/notas.sol\":2127:2137  revisiones */\n      0x02\n        /* \"NOTAS/notas.sol\":2120:2137  return revisiones */\n      dup1\n      sload\n      dup1\n      0x20\n      mul\n      0x20\n      add\n      mload(0x40)\n      swap1\n      dup2\n      add\n      0x40\n      mstore\n      dup1\n      swap3\n      swap2\n      swap1\n      dup2\n      dup2\n      mstore\n      0x20\n      add\n      0x00\n      swap1\n    tag_50:\n      dup3\n      dup3\n      lt\n      iszero\n      tag_51\n      jumpi\n      dup4\n      dup3\n      swap1\n      0x00\n      mstore\n      keccak256(0x00, 0x20)\n      add\n      dup1\n      sload\n      tag_53\n      swap1\n      tag_54\n      jump\t// in\n    tag_53:\n      dup1\n      0x1f\n      add\n      0x20\n      dup1\n      swap2\n      div\n      mul\n      0x20\n      add\n      mload(0x40)\n      swap1\n      dup2\n      add\n      0x40\n      mstore\n      dup1\n      swap3\n      swap2\n      swap1\n      dup2\n      dup2\n      mstore\n      0x20\n      add\n      dup3\n      dup1\n      sload\n      tag_55\n      swap1\n      tag_54\n      jump\t// in\n    tag_55:\n      dup1\n      iszero\n      tag_56\n      jumpi\n      dup1\n      0x1f\n      lt\n      tag_57\n      jumpi\n      0x0100\n      dup1\n      dup4\n      sload\n      div\n      mul\n      dup4\n      mstore\n      swap2\n      0x20\n      add\n      swap2\n      jump(tag_56)\n    tag_57:\n      dup3\n      add\n      swap2\n      swap1\n      0x00\n      mstore\n      keccak256(0x00, 0x20)\n      swap1\n    tag_58:\n      dup2\n      sload\n      dup2\n      mstore\n      swap1\n      0x01\n      add\n      swap1\n      0x20\n      add\n      dup1\n      dup4\n      gt\n      tag_58\n      jumpi\n      dup3\n      swap1\n      sub\n      0x1f\n      and\n      dup3\n      add\n      swap2\n    tag_56:\n      pop\n      pop\n      pop\n      pop\n      pop\n      dup2\n      mstore\n      0x20\n      add\n      swap1\n      0x01\n      add\n      swap1\n      jump(tag_50)\n    tag_51:\n      pop\n      pop\n      pop\n      pop\n      swap2\n      pop\n        /* \"NOTAS/notas.sol\":1961:2145  function VerSolicitudes() public view UnicamenteProfesor(msg.sender) returns(string[] memory){\r... */\n      pop\n      swap1\n      jump\t// out\n        /* \"NOTAS/notas.sol\":158:194  address public profesor = msg.sender */\n    tag_26:\n      0x00\n      dup1\n      sload\n      swap1\n      0x0100\n      exp\n      swap1\n      div\n      0xffffffffffffffffffffffffffffffffffffffff\n      and\n      dup2\n      jump\t// out\n    tag_41:\n      dup3\n      dup1\n      sload\n      tag_59\n      swap1\n      tag_54\n      jump\t// in\n    tag_59:\n      swap1\n      0x00\n      mstore\n      keccak256(0x00, 0x20)\n      swap1\n      0x1f\n      add\n      0x20\n      swap1\n      div\n      dup2\n      add\n      swap3\n      dup3\n      tag_61\n      jumpi\n      0x00\n      dup6\n      sstore\n      jump(tag_60)\n    tag_61:\n      dup3\n      0x1f\n      lt\n      tag_62\n      jumpi\n      dup1\n      mload\n      not(0xff)\n      and\n      dup4\n      dup1\n      add\n      or\n      dup6\n      sstore\n      jump(tag_60)\n    tag_62:\n      dup3\n      dup1\n      add\n      0x01\n      add\n      dup6\n      sstore\n      dup3\n      iszero\n      tag_60\n      jumpi\n      swap2\n      dup3\n      add\n    tag_63:\n      dup3\n      dup2\n      gt\n      iszero\n      tag_64\n      jumpi\n      dup3\n      mload\n      dup3\n      sstore\n      swap2\n      0x20\n      add\n      swap2\n      swap1\n      0x01\n      add\n      swap1\n      jump(tag_63)\n    tag_64:\n    tag_60:\n      pop\n      swap1\n      pop\n      tag_65\n      swap2\n      swap1\n      tag_66\n      jump\t// in\n    tag_65:\n      pop\n      swap1\n      jump\t// out\n    tag_66:\n    tag_67:\n      dup1\n      dup3\n      gt\n      iszero\n      tag_68\n      jumpi\n      0x00\n      dup2\n      0x00\n      swap1\n      sstore\n      pop\n      0x01\n      add\n      jump(tag_67)\n    tag_68:\n      pop\n      swap1\n      jump\t// out\n        /* \"#utility.yul\":7:419   */\n    tag_70:\n        /* \"#utility.yul\":85:90   */\n      0x00\n        /* \"#utility.yul\":110:176   */\n      tag_72\n        /* \"#utility.yul\":126:175   */\n      tag_73\n        /* \"#utility.yul\":168:174   */\n      dup5\n        /* \"#utility.yul\":126:175   */\n      tag_74\n      jump\t// in\n    tag_73:\n        /* \"#utility.yul\":110:176   */\n      tag_75\n      jump\t// in\n    tag_72:\n        /* \"#utility.yul\":101:176   */\n      swap1\n      pop\n        /* \"#utility.yul\":199:205   */\n      dup3\n        /* \"#utility.yul\":192:197   */\n      dup2\n        /* \"#utility.yul\":185:206   */\n      mstore\n        /* \"#utility.yul\":237:241   */\n      0x20\n        /* \"#utility.yul\":230:235   */\n      dup2\n        /* \"#utility.yul\":226:242   */\n      add\n        /* \"#utility.yul\":275:278   */\n      dup5\n        /* \"#utility.yul\":266:272   */\n      dup5\n        /* \"#utility.yul\":261:264   */\n      dup5\n        /* \"#utility.yul\":257:273   */\n      add\n        /* \"#utility.yul\":254:279   */\n      gt\n        /* \"#utility.yul\":251:363   */\n      iszero\n      tag_76\n      jumpi\n        /* \"#utility.yul\":282:361   */\n      tag_77\n      tag_78\n      jump\t// in\n    tag_77:\n        /* \"#utility.yul\":251:363   */\n    tag_76:\n        /* \"#utility.yul\":372:413   */\n      tag_79\n        /* \"#utility.yul\":406:412   */\n      dup5\n        /* \"#utility.yul\":401:404   */\n      dup3\n        /* \"#utility.yul\":396:399   */\n      dup6\n        /* \"#utility.yul\":372:413   */\n      tag_80\n      jump\t// in\n    tag_79:\n        /* \"#utility.yul\":91:419   */\n      pop\n        /* \"#utility.yul\":7:419   */\n      swap4\n      swap3\n      pop\n      pop\n      pop\n      jump\t// out\n        /* \"#utility.yul\":439:779   */\n    tag_81:\n        /* \"#utility.yul\":495:500   */\n      0x00\n        /* \"#utility.yul\":544:547   */\n      dup3\n        /* \"#utility.yul\":537:541   */\n      0x1f\n        /* \"#utility.yul\":529:535   */\n      dup4\n        /* \"#utility.yul\":525:542   */\n      add\n        /* \"#utility.yul\":521:548   */\n      slt\n        /* \"#utility.yul\":511:633   */\n      tag_83\n      jumpi\n        /* \"#utility.yul\":552:631   */\n      tag_84\n      tag_85\n      jump\t// in\n    tag_84:\n        /* \"#utility.yul\":511:633   */\n    tag_83:\n        /* \"#utility.yul\":669:675   */\n      dup2\n        /* \"#utility.yul\":656:676   */\n      calldataload\n        /* \"#utility.yul\":694:773   */\n      tag_86\n        /* \"#utility.yul\":769:772   */\n      dup5\n        /* \"#utility.yul\":761:767   */\n      dup3\n        /* \"#utility.yul\":754:758   */\n      0x20\n        /* \"#utility.yul\":746:752   */\n      dup7\n        /* \"#utility.yul\":742:759   */\n      add\n        /* \"#utility.yul\":694:773   */\n      tag_70\n      jump\t// in\n    tag_86:\n        /* \"#utility.yul\":685:773   */\n      swap2\n      pop\n        /* \"#utility.yul\":501:779   */\n      pop\n        /* \"#utility.yul\":439:779   */\n      swap3\n      swap2\n      pop\n      pop\n      jump\t// out\n        /* \"#utility.yul\":785:924   */\n    tag_87:\n        /* \"#utility.yul\":831:836   */\n      0x00\n        /* \"#utility.yul\":869:875   */\n      dup2\n        /* \"#utility.yul\":856:876   */\n      calldataload\n        /* \"#utility.yul\":847:876   */\n      swap1\n      pop\n        /* \"#utility.yul\":885:918   */\n      tag_89\n        /* \"#utility.yul\":912:917   */\n      dup2\n        /* \"#utility.yul\":885:918   */\n      tag_90\n      jump\t// in\n    tag_89:\n        /* \"#utility.yul\":785:924   */\n      swap3\n      swap2\n      pop\n      pop\n      jump\t// out\n        /* \"#utility.yul\":930:1439   */\n    tag_14:\n        /* \"#utility.yul\":999:1005   */\n      0x00\n        /* \"#utility.yul\":1048:1050   */\n      0x20\n        /* \"#utility.yul\":1036:1045   */\n      dup3\n        /* \"#utility.yul\":1027:1034   */\n      dup5\n        /* \"#utility.yul\":1023:1046   */\n      sub\n        /* \"#utility.yul\":1019:1051   */\n      slt\n        /* \"#utility.yul\":1016:1135   */\n      iszero\n      tag_92\n      jumpi\n        /* \"#utility.yul\":1054:1133   */\n      tag_93\n      tag_94\n      jump\t// in\n    tag_93:\n        /* \"#utility.yul\":1016:1135   */\n    tag_92:\n        /* \"#utility.yul\":1202:1203   */\n      0x00\n        /* \"#utility.yul\":1191:1200   */\n      dup3\n        /* \"#utility.yul\":1187:1204   */\n      add\n        /* \"#utility.yul\":1174:1205   */\n      calldataload\n        /* \"#utility.yul\":1232:1250   */\n      0xffffffffffffffff\n        /* \"#utility.yul\":1224:1230   */\n      dup2\n        /* \"#utility.yul\":1221:1251   */\n      gt\n        /* \"#utility.yul\":1218:1335   */\n      iszero\n      tag_95\n      jumpi\n        /* \"#utility.yul\":1254:1333   */\n      tag_96\n      tag_97\n      jump\t// in\n    tag_96:\n        /* \"#utility.yul\":1218:1335   */\n    tag_95:\n        /* \"#utility.yul\":1359:1422   */\n      tag_98\n        /* \"#utility.yul\":1414:1421   */\n      dup5\n        /* \"#utility.yul\":1405:1411   */\n      dup3\n        /* \"#utility.yul\":1394:1403   */\n      dup6\n        /* \"#utility.yul\":1390:1412   */\n      add\n        /* \"#utility.yul\":1359:1422   */\n      tag_81\n      jump\t// in\n    tag_98:\n        /* \"#utility.yul\":1349:1422   */\n      swap2\n      pop\n        /* \"#utility.yul\":1145:1432   */\n      pop\n        /* \"#utility.yul\":930:1439   */\n      swap3\n      swap2\n      pop\n      pop\n      jump\t// out\n        /* \"#utility.yul\":1445:2099   */\n    tag_10:\n        /* \"#utility.yul\":1523:1529   */\n      0x00\n        /* \"#utility.yul\":1531:1537   */\n      dup1\n        /* \"#utility.yul\":1580:1582   */\n      0x40\n        /* \"#utility.yul\":1568:1577   */\n      dup4\n        /* \"#utility.yul\":1559:1566   */\n      dup6\n        /* \"#utility.yul\":1555:1578   */\n      sub\n        /* \"#utility.yul\":1551:1583   */\n      slt\n        /* \"#utility.yul\":1548:1667   */\n      iszero\n      tag_100\n      jumpi\n        /* \"#utility.yul\":1586:1665   */\n      tag_101\n      tag_94\n      jump\t// in\n    tag_101:\n        /* \"#utility.yul\":1548:1667   */\n    tag_100:\n        /* \"#utility.yul\":1734:1735   */\n      0x00\n        /* \"#utility.yul\":1723:1732   */\n      dup4\n        /* \"#utility.yul\":1719:1736   */\n      add\n        /* \"#utility.yul\":1706:1737   */\n      calldataload\n        /* \"#utility.yul\":1764:1782   */\n      0xffffffffffffffff\n        /* \"#utility.yul\":1756:1762   */\n      dup2\n        /* \"#utility.yul\":1753:1783   */\n      gt\n        /* \"#utility.yul\":1750:1867   */\n      iszero\n      tag_102\n      jumpi\n        /* \"#utility.yul\":1786:1865   */\n      tag_103\n      tag_97\n      jump\t// in\n    tag_103:\n        /* \"#utility.yul\":1750:1867   */\n    tag_102:\n        /* \"#utility.yul\":1891:1954   */\n      tag_104\n        /* \"#utility.yul\":1946:1953   */\n      dup6\n        /* \"#utility.yul\":1937:1943   */\n      dup3\n        /* \"#utility.yul\":1926:1935   */\n      dup7\n        /* \"#utility.yul\":1922:1944   */\n      add\n        /* \"#utility.yul\":1891:1954   */\n      tag_81\n      jump\t// in\n    tag_104:\n        /* \"#utility.yul\":1881:1954   */\n      swap3\n      pop\n        /* \"#utility.yul\":1677:1964   */\n      pop\n        /* \"#utility.yul\":2003:2005   */\n      0x20\n        /* \"#utility.yul\":2029:2082   */\n      tag_105\n        /* \"#utility.yul\":2074:2081   */\n      dup6\n        /* \"#utility.yul\":2065:2071   */\n      dup3\n        /* \"#utility.yul\":2054:2063   */\n      dup7\n        /* \"#utility.yul\":2050:2072   */\n      add\n        /* \"#utility.yul\":2029:2082   */\n      tag_87\n      jump\t// in\n    tag_105:\n        /* \"#utility.yul\":2019:2082   */\n      swap2\n      pop\n        /* \"#utility.yul\":1974:2092   */\n      pop\n        /* \"#utility.yul\":1445:2099   */\n      swap3\n      pop\n      swap3\n      swap1\n      pop\n      jump\t// out\n        /* \"#utility.yul\":2105:2301   */\n    tag_106:\n        /* \"#utility.yul\":2194:2204   */\n      0x00\n        /* \"#utility.yul\":2229:2295   */\n      tag_108\n        /* \"#utility.yul\":2291:2294   */\n      dup4\n        /* \"#utility.yul\":2283:2289   */\n      dup4\n        /* \"#utility.yul\":2229:2295   */\n      tag_109\n      jump\t// in\n    tag_108:\n        /* \"#utility.yul\":2215:2295   */\n      swap1\n      pop\n        /* \"#utility.yul\":2105:2301   */\n      swap3\n      swap2\n      pop\n      pop\n      jump\t// out\n        /* \"#utility.yul\":2307:2425   */\n    tag_110:\n        /* \"#utility.yul\":2394:2418   */\n      tag_112\n        /* \"#utility.yul\":2412:2417   */\n      dup2\n        /* \"#utility.yul\":2394:2418   */\n      tag_113\n      jump\t// in\n    tag_112:\n        /* \"#utility.yul\":2389:2392   */\n      dup3\n        /* \"#utility.yul\":2382:2419   */\n      mstore\n        /* \"#utility.yul\":2307:2425   */\n      pop\n      pop\n      jump\t// out\n        /* \"#utility.yul\":2459:3450   */\n    tag_114:\n        /* \"#utility.yul\":2598:2601   */\n      0x00\n        /* \"#utility.yul\":2627:2691   */\n      tag_116\n        /* \"#utility.yul\":2685:2690   */\n      dup3\n        /* \"#utility.yul\":2627:2691   */\n      tag_117\n      jump\t// in\n    tag_116:\n        /* \"#utility.yul\":2707:2803   */\n      tag_118\n        /* \"#utility.yul\":2796:2802   */\n      dup2\n        /* \"#utility.yul\":2791:2794   */\n      dup6\n        /* \"#utility.yul\":2707:2803   */\n      tag_119\n      jump\t// in\n    tag_118:\n        /* \"#utility.yul\":2700:2803   */\n      swap4\n      pop\n        /* \"#utility.yul\":2829:2832   */\n      dup4\n        /* \"#utility.yul\":2874:2878   */\n      0x20\n        /* \"#utility.yul\":2866:2872   */\n      dup3\n        /* \"#utility.yul\":2862:2879   */\n      mul\n        /* \"#utility.yul\":2857:2860   */\n      dup6\n        /* \"#utility.yul\":2853:2880   */\n      add\n        /* \"#utility.yul\":2904:2970   */\n      tag_120\n        /* \"#utility.yul\":2964:2969   */\n      dup6\n        /* \"#utility.yul\":2904:2970   */\n      tag_121\n      jump\t// in\n    tag_120:\n        /* \"#utility.yul\":2993:3000   */\n      dup1\n        /* \"#utility.yul\":3024:3025   */\n      0x00\n        /* \"#utility.yul\":3009:3405   */\n    tag_122:\n        /* \"#utility.yul\":3034:3040   */\n      dup6\n        /* \"#utility.yul\":3031:3032   */\n      dup2\n        /* \"#utility.yul\":3028:3041   */\n      lt\n        /* \"#utility.yul\":3009:3405   */\n      iszero\n      tag_124\n      jumpi\n        /* \"#utility.yul\":3105:3114   */\n      dup5\n        /* \"#utility.yul\":3099:3103   */\n      dup5\n        /* \"#utility.yul\":3095:3115   */\n      sub\n        /* \"#utility.yul\":3090:3093   */\n      dup10\n        /* \"#utility.yul\":3083:3116   */\n      mstore\n        /* \"#utility.yul\":3156:3162   */\n      dup2\n        /* \"#utility.yul\":3150:3163   */\n      mload\n        /* \"#utility.yul\":3184:3268   */\n      tag_125\n        /* \"#utility.yul\":3263:3267   */\n      dup6\n        /* \"#utility.yul\":3248:3261   */\n      dup3\n        /* \"#utility.yul\":3184:3268   */\n      tag_106\n      jump\t// in\n    tag_125:\n        /* \"#utility.yul\":3176:3268   */\n      swap5\n      pop\n        /* \"#utility.yul\":3291:3361   */\n      tag_126\n        /* \"#utility.yul\":3354:3360   */\n      dup4\n        /* \"#utility.yul\":3291:3361   */\n      tag_127\n      jump\t// in\n    tag_126:\n        /* \"#utility.yul\":3281:3361   */\n      swap3\n      pop\n        /* \"#utility.yul\":3390:3394   */\n      0x20\n        /* \"#utility.yul\":3385:3388   */\n      dup11\n        /* \"#utility.yul\":3381:3395   */\n      add\n        /* \"#utility.yul\":3374:3395   */\n      swap10\n      pop\n        /* \"#utility.yul\":3069:3405   */\n      pop\n        /* \"#utility.yul\":3056:3057   */\n      0x01\n        /* \"#utility.yul\":3053:3054   */\n      dup2\n        /* \"#utility.yul\":3049:3058   */\n      add\n        /* \"#utility.yul\":3044:3058   */\n      swap1\n      pop\n        /* \"#utility.yul\":3009:3405   */\n      jump(tag_122)\n    tag_124:\n        /* \"#utility.yul\":3013:3027   */\n      pop\n        /* \"#utility.yul\":3421:3425   */\n      dup3\n        /* \"#utility.yul\":3414:3425   */\n      swap8\n      pop\n        /* \"#utility.yul\":3441:3444   */\n      dup8\n        /* \"#utility.yul\":3434:3444   */\n      swap6\n      pop\n        /* \"#utility.yul\":2603:3450   */\n      pop\n      pop\n      pop\n      pop\n      pop\n        /* \"#utility.yul\":2459:3450   */\n      swap3\n      swap2\n      pop\n      pop\n      jump\t// out\n        /* \"#utility.yul\":3456:3574   */\n    tag_128:\n        /* \"#utility.yul\":3543:3567   */\n      tag_130\n        /* \"#utility.yul\":3561:3566   */\n      dup2\n        /* \"#utility.yul\":3543:3567   */\n      tag_131\n      jump\t// in\n    tag_130:\n        /* \"#utility.yul\":3538:3541   */\n      dup3\n        /* \"#utility.yul\":3531:3568   */\n      mstore\n        /* \"#utility.yul\":3456:3574   */\n      pop\n      pop\n      jump\t// out\n        /* \"#utility.yul\":3580:3924   */\n    tag_109:\n        /* \"#utility.yul\":3658:3661   */\n      0x00\n        /* \"#utility.yul\":3686:3725   */\n      tag_133\n        /* \"#utility.yul\":3719:3724   */\n      dup3\n        /* \"#utility.yul\":3686:3725   */\n      tag_134\n      jump\t// in\n    tag_133:\n        /* \"#utility.yul\":3741:3802   */\n      tag_135\n        /* \"#utility.yul\":3795:3801   */\n      dup2\n        /* \"#utility.yul\":3790:3793   */\n      dup6\n        /* \"#utility.yul\":3741:3802   */\n      tag_136\n      jump\t// in\n    tag_135:\n        /* \"#utility.yul\":3734:3802   */\n      swap4\n      pop\n        /* \"#utility.yul\":3811:3863   */\n      tag_137\n        /* \"#utility.yul\":3856:3862   */\n      dup2\n        /* \"#utility.yul\":3851:3854   */\n      dup6\n        /* \"#utility.yul\":3844:3848   */\n      0x20\n        /* \"#utility.yul\":3837:3842   */\n      dup7\n        /* \"#utility.yul\":3833:3849   */\n      add\n        /* \"#utility.yul\":3811:3863   */\n      tag_138\n      jump\t// in\n    tag_137:\n        /* \"#utility.yul\":3888:3917   */\n      tag_139\n        /* \"#utility.yul\":3910:3916   */\n      dup2\n        /* \"#utility.yul\":3888:3917   */\n      tag_140\n      jump\t// in\n    tag_139:\n        /* \"#utility.yul\":3883:3886   */\n      dup5\n        /* \"#utility.yul\":3879:3918   */\n      add\n        /* \"#utility.yul\":3872:3918   */\n      swap2\n      pop\n        /* \"#utility.yul\":3662:3924   */\n      pop\n        /* \"#utility.yul\":3580:3924   */\n      swap3\n      swap2\n      pop\n      pop\n      jump\t// out\n        /* \"#utility.yul\":3930:4294   */\n    tag_141:\n        /* \"#utility.yul\":4018:4021   */\n      0x00\n        /* \"#utility.yul\":4046:4085   */\n      tag_143\n        /* \"#utility.yul\":4079:4084   */\n      dup3\n        /* \"#utility.yul\":4046:4085   */\n      tag_134\n      jump\t// in\n    tag_143:\n        /* \"#utility.yul\":4101:4172   */\n      tag_144\n        /* \"#utility.yul\":4165:4171   */\n      dup2\n        /* \"#utility.yul\":4160:4163   */\n      dup6\n        /* \"#utility.yul\":4101:4172   */\n      tag_145\n      jump\t// in\n    tag_144:\n        /* \"#utility.yul\":4094:4172   */\n      swap4\n      pop\n        /* \"#utility.yul\":4181:4233   */\n      tag_146\n        /* \"#utility.yul\":4226:4232   */\n      dup2\n        /* \"#utility.yul\":4221:4224   */\n      dup6\n        /* \"#utility.yul\":4214:4218   */\n      0x20\n        /* \"#utility.yul\":4207:4212   */\n      dup7\n        /* \"#utility.yul\":4203:4219   */\n      add\n        /* \"#utility.yul\":4181:4233   */\n      tag_138\n      jump\t// in\n    tag_146:\n        /* \"#utility.yul\":4258:4287   */\n      tag_147\n        /* \"#utility.yul\":4280:4286   */\n      dup2\n        /* \"#utility.yul\":4258:4287   */\n      tag_140\n      jump\t// in\n    tag_147:\n        /* \"#utility.yul\":4253:4256   */\n      dup5\n        /* \"#utility.yul\":4249:4288   */\n      add\n        /* \"#utility.yul\":4242:4288   */\n      swap2\n      pop\n        /* \"#utility.yul\":4022:4294   */\n      pop\n        /* \"#utility.yul\":3930:4294   */\n      swap3\n      swap2\n      pop\n      pop\n      jump\t// out\n        /* \"#utility.yul\":4300:4677   */\n    tag_148:\n        /* \"#utility.yul\":4406:4409   */\n      0x00\n        /* \"#utility.yul\":4434:4473   */\n      tag_150\n        /* \"#utility.yul\":4467:4472   */\n      dup3\n        /* \"#utility.yul\":4434:4473   */\n      tag_134\n      jump\t// in\n    tag_150:\n        /* \"#utility.yul\":4489:4578   */\n      tag_151\n        /* \"#utility.yul\":4571:4577   */\n      dup2\n        /* \"#utility.yul\":4566:4569   */\n      dup6\n        /* \"#utility.yul\":4489:4578   */\n      tag_152\n      jump\t// in\n    tag_151:\n        /* \"#utility.yul\":4482:4578   */\n      swap4\n      pop\n        /* \"#utility.yul\":4587:4639   */\n      tag_153\n        /* \"#utility.yul\":4632:4638   */\n      dup2\n        /* \"#utility.yul\":4627:4630   */\n      dup6\n        /* \"#utility.yul\":4620:4624   */\n      0x20\n        /* \"#utility.yul\":4613:4618   */\n      dup7\n        /* \"#utility.yul\":4609:4625   */\n      add\n        /* \"#utility.yul\":4587:4639   */\n      tag_138\n      jump\t// in\n    tag_153:\n        /* \"#utility.yul\":4664:4670   */\n      dup1\n        /* \"#utility.yul\":4659:4662   */\n      dup5\n        /* \"#utility.yul\":4655:4671   */\n      add\n        /* \"#utility.yul\":4648:4671   */\n      swap2\n      pop\n        /* \"#utility.yul\":4410:4677   */\n      pop\n        /* \"#utility.yul\":4300:4677   */\n      swap3\n      swap2\n      pop\n      pop\n      jump\t// out\n        /* \"#utility.yul\":4683:5049   */\n    tag_154:\n        /* \"#utility.yul\":4825:4828   */\n      0x00\n        /* \"#utility.yul\":4846:4913   */\n      tag_156\n        /* \"#utility.yul\":4910:4912   */\n      0x2c\n        /* \"#utility.yul\":4905:4908   */\n      dup4\n        /* \"#utility.yul\":4846:4913   */\n      tag_145\n      jump\t// in\n    tag_156:\n        /* \"#utility.yul\":4839:4913   */\n      swap2\n      pop\n        /* \"#utility.yul\":4922:5015   */\n      tag_157\n        /* \"#utility.yul\":5011:5014   */\n      dup3\n        /* \"#utility.yul\":4922:5015   */\n      tag_158\n      jump\t// in\n    tag_157:\n        /* \"#utility.yul\":5040:5042   */\n      0x40\n        /* \"#utility.yul\":5035:5038   */\n      dup3\n        /* \"#utility.yul\":5031:5043   */\n      add\n        /* \"#utility.yul\":5024:5043   */\n      swap1\n      pop\n        /* \"#utility.yul\":4683:5049   */\n      swap2\n      swap1\n      pop\n      jump\t// out\n        /* \"#utility.yul\":5055:5173   */\n    tag_159:\n        /* \"#utility.yul\":5142:5166   */\n      tag_161\n        /* \"#utility.yul\":5160:5165   */\n      dup2\n        /* \"#utility.yul\":5142:5166   */\n      tag_162\n      jump\t// in\n    tag_161:\n        /* \"#utility.yul\":5137:5140   */\n      dup3\n        /* \"#utility.yul\":5130:5167   */\n      mstore\n        /* \"#utility.yul\":5055:5173   */\n      pop\n      pop\n      jump\t// out\n        /* \"#utility.yul\":5179:5454   */\n    tag_35:\n        /* \"#utility.yul\":5311:5314   */\n      0x00\n        /* \"#utility.yul\":5333:5428   */\n      tag_164\n        /* \"#utility.yul\":5424:5427   */\n      dup3\n        /* \"#utility.yul\":5415:5421   */\n      dup5\n        /* \"#utility.yul\":5333:5428   */\n      tag_148\n      jump\t// in\n    tag_164:\n        /* \"#utility.yul\":5326:5428   */\n      swap2\n      pop\n        /* \"#utility.yul\":5445:5448   */\n      dup2\n        /* \"#utility.yul\":5438:5448   */\n      swap1\n      pop\n        /* \"#utility.yul\":5179:5454   */\n      swap3\n      swap2\n      pop\n      pop\n      jump\t// out\n        /* \"#utility.yul\":5460:5682   */\n    tag_28:\n        /* \"#utility.yul\":5553:5557   */\n      0x00\n        /* \"#utility.yul\":5591:5593   */\n      0x20\n        /* \"#utility.yul\":5580:5589   */\n      dup3\n        /* \"#utility.yul\":5576:5594   */\n      add\n        /* \"#utility.yul\":5568:5594   */\n      swap1\n      pop\n        /* \"#utility.yul\":5604:5675   */\n      tag_166\n        /* \"#utility.yul\":5672:5673   */\n      0x00\n        /* \"#utility.yul\":5661:5670   */\n      dup4\n        /* \"#utility.yul\":5657:5674   */\n      add\n        /* \"#utility.yul\":5648:5654   */\n      dup5\n        /* \"#utility.yul\":5604:5675   */\n      tag_110\n      jump\t// in\n    tag_166:\n        /* \"#utility.yul\":5460:5682   */\n      swap3\n      swap2\n      pop\n      pop\n      jump\t// out\n        /* \"#utility.yul\":5688:6101   */\n    tag_24:\n        /* \"#utility.yul\":5851:5855   */\n      0x00\n        /* \"#utility.yul\":5889:5891   */\n      0x20\n        /* \"#utility.yul\":5878:5887   */\n      dup3\n        /* \"#utility.yul\":5874:5892   */\n      add\n        /* \"#utility.yul\":5866:5892   */\n      swap1\n      pop\n        /* \"#utility.yul\":5938:5947   */\n      dup2\n        /* \"#utility.yul\":5932:5936   */\n      dup2\n        /* \"#utility.yul\":5928:5948   */\n      sub\n        /* \"#utility.yul\":5924:5925   */\n      0x00\n        /* \"#utility.yul\":5913:5922   */\n      dup4\n        /* \"#utility.yul\":5909:5926   */\n      add\n        /* \"#utility.yul\":5902:5949   */\n      mstore\n        /* \"#utility.yul\":5966:6094   */\n      tag_168\n        /* \"#utility.yul\":6089:6093   */\n      dup2\n        /* \"#utility.yul\":6080:6086   */\n      dup5\n        /* \"#utility.yul\":5966:6094   */\n      tag_114\n      jump\t// in\n    tag_168:\n        /* \"#utility.yul\":5958:6094   */\n      swap1\n      pop\n        /* \"#utility.yul\":5688:6101   */\n      swap3\n      swap2\n      pop\n      pop\n      jump\t// out\n        /* \"#utility.yul\":6107:6329   */\n    tag_37:\n        /* \"#utility.yul\":6200:6204   */\n      0x00\n        /* \"#utility.yul\":6238:6240   */\n      0x20\n        /* \"#utility.yul\":6227:6236   */\n      dup3\n        /* \"#utility.yul\":6223:6241   */\n      add\n        /* \"#utility.yul\":6215:6241   */\n      swap1\n      pop\n        /* \"#utility.yul\":6251:6322   */\n      tag_170\n        /* \"#utility.yul\":6319:6320   */\n      0x00\n        /* \"#utility.yul\":6308:6317   */\n      dup4\n        /* \"#utility.yul\":6304:6321   */\n      add\n        /* \"#utility.yul\":6295:6301   */\n      dup5\n        /* \"#utility.yul\":6251:6322   */\n      tag_128\n      jump\t// in\n    tag_170:\n        /* \"#utility.yul\":6107:6329   */\n      swap3\n      swap2\n      pop\n      pop\n      jump\t// out\n        /* \"#utility.yul\":6335:6648   */\n    tag_43:\n        /* \"#utility.yul\":6448:6452   */\n      0x00\n        /* \"#utility.yul\":6486:6488   */\n      0x20\n        /* \"#utility.yul\":6475:6484   */\n      dup3\n        /* \"#utility.yul\":6471:6489   */\n      add\n        /* \"#utility.yul\":6463:6489   */\n      swap1\n      pop\n        /* \"#utility.yul\":6535:6544   */\n      dup2\n        /* \"#utility.yul\":6529:6533   */\n      dup2\n        /* \"#utility.yul\":6525:6545   */\n      sub\n        /* \"#utility.yul\":6521:6522   */\n      0x00\n        /* \"#utility.yul\":6510:6519   */\n      dup4\n        /* \"#utility.yul\":6506:6523   */\n      add\n        /* \"#utility.yul\":6499:6546   */\n      mstore\n        /* \"#utility.yul\":6563:6641   */\n      tag_172\n        /* \"#utility.yul\":6636:6640   */\n      dup2\n        /* \"#utility.yul\":6627:6633   */\n      dup5\n        /* \"#utility.yul\":6563:6641   */\n      tag_141\n      jump\t// in\n    tag_172:\n        /* \"#utility.yul\":6555:6641   */\n      swap1\n      pop\n        /* \"#utility.yul\":6335:6648   */\n      swap3\n      swap2\n      pop\n      pop\n      jump\t// out\n        /* \"#utility.yul\":6654:7073   */\n    tag_32:\n        /* \"#utility.yul\":6820:6824   */\n      0x00\n        /* \"#utility.yul\":6858:6860   */\n      0x20\n        /* \"#utility.yul\":6847:6856   */\n      dup3\n        /* \"#utility.yul\":6843:6861   */\n      add\n        /* \"#utility.yul\":6835:6861   */\n      swap1\n      pop\n        /* \"#utility.yul\":6907:6916   */\n      dup2\n        /* \"#utility.yul\":6901:6905   */\n      dup2\n        /* \"#utility.yul\":6897:6917   */\n      sub\n        /* \"#utility.yul\":6893:6894   */\n      0x00\n        /* \"#utility.yul\":6882:6891   */\n      dup4\n        /* \"#utility.yul\":6878:6895   */\n      add\n        /* \"#utility.yul\":6871:6918   */\n      mstore\n        /* \"#utility.yul\":6935:7066   */\n      tag_174\n        /* \"#utility.yul\":7061:7065   */\n      dup2\n        /* \"#utility.yul\":6935:7066   */\n      tag_154\n      jump\t// in\n    tag_174:\n        /* \"#utility.yul\":6927:7066   */\n      swap1\n      pop\n        /* \"#utility.yul\":6654:7073   */\n      swap2\n      swap1\n      pop\n      jump\t// out\n        /* \"#utility.yul\":7079:7301   */\n    tag_20:\n        /* \"#utility.yul\":7172:7176   */\n      0x00\n        /* \"#utility.yul\":7210:7212   */\n      0x20\n        /* \"#utility.yul\":7199:7208   */\n      dup3\n        /* \"#utility.yul\":7195:7213   */\n      add\n        /* \"#utility.yul\":7187:7213   */\n      swap1\n      pop\n        /* \"#utility.yul\":7223:7294   */\n      tag_176\n        /* \"#utility.yul\":7291:7292   */\n      0x00\n        /* \"#utility.yul\":7280:7289   */\n      dup4\n        /* \"#utility.yul\":7276:7293   */\n      add\n        /* \"#utility.yul\":7267:7273   */\n      dup5\n        /* \"#utility.yul\":7223:7294   */\n      tag_159\n      jump\t// in\n    tag_176:\n        /* \"#utility.yul\":7079:7301   */\n      swap3\n      swap2\n      pop\n      pop\n      jump\t// out\n        /* \"#utility.yul\":7307:7436   */\n    tag_75:\n        /* \"#utility.yul\":7341:7347   */\n      0x00\n        /* \"#utility.yul\":7368:7388   */\n      tag_178\n      tag_179\n      jump\t// in\n    tag_178:\n        /* \"#utility.yul\":7358:7388   */\n      swap1\n      pop\n        /* \"#utility.yul\":7397:7430   */\n      tag_180\n        /* \"#utility.yul\":7425:7429   */\n      dup3\n        /* \"#utility.yul\":7417:7423   */\n      dup3\n        /* \"#utility.yul\":7397:7430   */\n      tag_181\n      jump\t// in\n    tag_180:\n        /* \"#utility.yul\":7307:7436   */\n      swap2\n      swap1\n      pop\n      jump\t// out\n        /* \"#utility.yul\":7442:7517   */\n    tag_179:\n        /* \"#utility.yul\":7475:7481   */\n      0x00\n        /* \"#utility.yul\":7508:7510   */\n      0x40\n        /* \"#utility.yul\":7502:7511   */\n      mload\n        /* \"#utility.yul\":7492:7511   */\n      swap1\n      pop\n        /* \"#utility.yul\":7442:7517   */\n      swap1\n      jump\t// out\n        /* \"#utility.yul\":7523:7831   */\n    tag_74:\n        /* \"#utility.yul\":7585:7589   */\n      0x00\n        /* \"#utility.yul\":7675:7693   */\n      0xffffffffffffffff\n        /* \"#utility.yul\":7667:7673   */\n      dup3\n        /* \"#utility.yul\":7664:7694   */\n      gt\n        /* \"#utility.yul\":7661:7717   */\n      iszero\n      tag_184\n      jumpi\n        /* \"#utility.yul\":7697:7715   */\n      tag_185\n      tag_186\n      jump\t// in\n    tag_185:\n        /* \"#utility.yul\":7661:7717   */\n    tag_184:\n        /* \"#utility.yul\":7735:7764   */\n      tag_187\n        /* \"#utility.yul\":7757:7763   */\n      dup3\n        /* \"#utility.yul\":7735:7764   */\n      tag_140\n      jump\t// in\n    tag_187:\n        /* \"#utility.yul\":7727:7764   */\n      swap1\n      pop\n        /* \"#utility.yul\":7819:7823   */\n      0x20\n        /* \"#utility.yul\":7813:7817   */\n      dup2\n        /* \"#utility.yul\":7809:7824   */\n      add\n        /* \"#utility.yul\":7801:7824   */\n      swap1\n      pop\n        /* \"#utility.yul\":7523:7831   */\n      swap2\n      swap1\n      pop\n      jump\t// out\n        /* \"#utility.yul\":7837:7979   */\n    tag_121:\n        /* \"#utility.yul\":7914:7918   */\n      0x00\n        /* \"#utility.yul\":7937:7940   */\n      dup2\n        /* \"#utility.yul\":7929:7940   */\n      swap1\n      pop\n        /* \"#utility.yul\":7967:7971   */\n      0x20\n        /* \"#utility.yul\":7962:7965   */\n      dup3\n        /* \"#utility.yul\":7958:7972   */\n      add\n        /* \"#utility.yul\":7950:7972   */\n      swap1\n      pop\n        /* \"#utility.yul\":7837:7979   */\n      swap2\n      swap1\n      pop\n      jump\t// out\n        /* \"#utility.yul\":7985:8109   */\n    tag_117:\n        /* \"#utility.yul\":8062:8068   */\n      0x00\n        /* \"#utility.yul\":8096:8101   */\n      dup2\n        /* \"#utility.yul\":8090:8102   */\n      mload\n        /* \"#utility.yul\":8080:8102   */\n      swap1\n      pop\n        /* \"#utility.yul\":7985:8109   */\n      swap2\n      swap1\n      pop\n      jump\t// out\n        /* \"#utility.yul\":8115:8214   */\n    tag_134:\n        /* \"#utility.yul\":8167:8173   */\n      0x00\n        /* \"#utility.yul\":8201:8206   */\n      dup2\n        /* \"#utility.yul\":8195:8207   */\n      mload\n        /* \"#utility.yul\":8185:8207   */\n      swap1\n      pop\n        /* \"#utility.yul\":8115:8214   */\n      swap2\n      swap1\n      pop\n      jump\t// out\n        /* \"#utility.yul\":8220:8343   */\n    tag_127:\n        /* \"#utility.yul\":8300:8304   */\n      0x00\n        /* \"#utility.yul\":8332:8336   */\n      0x20\n        /* \"#utility.yul\":8327:8330   */\n      dup3\n        /* \"#utility.yul\":8323:8337   */\n      add\n        /* \"#utility.yul\":8315:8337   */\n      swap1\n      pop\n        /* \"#utility.yul\":8220:8343   */\n      swap2\n      swap1\n      pop\n      jump\t// out\n        /* \"#utility.yul\":8349:8543   */\n    tag_119:\n        /* \"#utility.yul\":8458:8469   */\n      0x00\n        /* \"#utility.yul\":8492:8498   */\n      dup3\n        /* \"#utility.yul\":8487:8490   */\n      dup3\n        /* \"#utility.yul\":8480:8499   */\n      mstore\n        /* \"#utility.yul\":8532:8536   */\n      0x20\n        /* \"#utility.yul\":8527:8530   */\n      dup3\n        /* \"#utility.yul\":8523:8537   */\n      add\n        /* \"#utility.yul\":8508:8537   */\n      swap1\n      pop\n        /* \"#utility.yul\":8349:8543   */\n      swap3\n      swap2\n      pop\n      pop\n      jump\t// out\n        /* \"#utility.yul\":8549:8708   */\n    tag_136:\n        /* \"#utility.yul\":8623:8634   */\n      0x00\n        /* \"#utility.yul\":8657:8663   */\n      dup3\n        /* \"#utility.yul\":8652:8655   */\n      dup3\n        /* \"#utility.yul\":8645:8664   */\n      mstore\n        /* \"#utility.yul\":8697:8701   */\n      0x20\n        /* \"#utility.yul\":8692:8695   */\n      dup3\n        /* \"#utility.yul\":8688:8702   */\n      add\n        /* \"#utility.yul\":8673:8702   */\n      swap1\n      pop\n        /* \"#utility.yul\":8549:8708   */\n      swap3\n      swap2\n      pop\n      pop\n      jump\t// out\n        /* \"#utility.yul\":8714:8883   */\n    tag_145:\n        /* \"#utility.yul\":8798:8809   */\n      0x00\n        /* \"#utility.yul\":8832:8838   */\n      dup3\n        /* \"#utility.yul\":8827:8830   */\n      dup3\n        /* \"#utility.yul\":8820:8839   */\n      mstore\n        /* \"#utility.yul\":8872:8876   */\n      0x20\n        /* \"#utility.yul\":8867:8870   */\n      dup3\n        /* \"#utility.yul\":8863:8877   */\n      add\n        /* \"#utility.yul\":8848:8877   */\n      swap1\n      pop\n        /* \"#utility.yul\":8714:8883   */\n      swap3\n      swap2\n      pop\n      pop\n      jump\t// out\n        /* \"#utility.yul\":8889:9037   */\n    tag_152:\n        /* \"#utility.yul\":8991:9002   */\n      0x00\n        /* \"#utility.yul\":9028:9031   */\n      dup2\n        /* \"#utility.yul\":9013:9031   */\n      swap1\n      pop\n        /* \"#utility.yul\":8889:9037   */\n      swap3\n      swap2\n      pop\n      pop\n      jump\t// out\n        /* \"#utility.yul\":9043:9139   */\n    tag_113:\n        /* \"#utility.yul\":9080:9087   */\n      0x00\n        /* \"#utility.yul\":9109:9133   */\n      tag_197\n        /* \"#utility.yul\":9127:9132   */\n      dup3\n        /* \"#utility.yul\":9109:9133   */\n      tag_198\n      jump\t// in\n    tag_197:\n        /* \"#utility.yul\":9098:9133   */\n      swap1\n      pop\n        /* \"#utility.yul\":9043:9139   */\n      swap2\n      swap1\n      pop\n      jump\t// out\n        /* \"#utility.yul\":9145:9222   */\n    tag_131:\n        /* \"#utility.yul\":9182:9189   */\n      0x00\n        /* \"#utility.yul\":9211:9216   */\n      dup2\n        /* \"#utility.yul\":9200:9216   */\n      swap1\n      pop\n        /* \"#utility.yul\":9145:9222   */\n      swap2\n      swap1\n      pop\n      jump\t// out\n        /* \"#utility.yul\":9228:9354   */\n    tag_198:\n        /* \"#utility.yul\":9265:9272   */\n      0x00\n        /* \"#utility.yul\":9305:9347   */\n      0xffffffffffffffffffffffffffffffffffffffff\n        /* \"#utility.yul\":9298:9303   */\n      dup3\n        /* \"#utility.yul\":9294:9348   */\n      and\n        /* \"#utility.yul\":9283:9348   */\n      swap1\n      pop\n        /* \"#utility.yul\":9228:9354   */\n      swap2\n      swap1\n      pop\n      jump\t// out\n        /* \"#utility.yul\":9360:9437   */\n    tag_162:\n        /* \"#utility.yul\":9397:9404   */\n      0x00\n        /* \"#utility.yul\":9426:9431   */\n      dup2\n        /* \"#utility.yul\":9415:9431   */\n      swap1\n      pop\n        /* \"#utility.yul\":9360:9437   */\n      swap2\n      swap1\n      pop\n      jump\t// out\n        /* \"#utility.yul\":9443:9597   */\n    tag_80:\n        /* \"#utility.yul\":9527:9533   */\n      dup3\n        /* \"#utility.yul\":9522:9525   */\n      dup2\n        /* \"#utility.yul\":9517:9520   */\n      dup4\n        /* \"#utility.yul\":9504:9534   */\n      calldatacopy\n        /* \"#utility.yul\":9589:9590   */\n      0x00\n        /* \"#utility.yul\":9580:9586   */\n      dup4\n        /* \"#utility.yul\":9575:9578   */\n      dup4\n        /* \"#utility.yul\":9571:9587   */\n      add\n        /* \"#utility.yul\":9564:9591   */\n      mstore\n        /* \"#utility.yul\":9443:9597   */\n      pop\n      pop\n      pop\n      jump\t// out\n        /* \"#utility.yul\":9603:9910   */\n    tag_138:\n        /* \"#utility.yul\":9671:9672   */\n      0x00\n        /* \"#utility.yul\":9681:9794   */\n    tag_204:\n        /* \"#utility.yul\":9695:9701   */\n      dup4\n        /* \"#utility.yul\":9692:9693   */\n      dup2\n        /* \"#utility.yul\":9689:9702   */\n      lt\n        /* \"#utility.yul\":9681:9794   */\n      iszero\n      tag_206\n      jumpi\n        /* \"#utility.yul\":9780:9781   */\n      dup1\n        /* \"#utility.yul\":9775:9778   */\n      dup3\n        /* \"#utility.yul\":9771:9782   */\n      add\n        /* \"#utility.yul\":9765:9783   */\n      mload\n        /* \"#utility.yul\":9761:9762   */\n      dup2\n        /* \"#utility.yul\":9756:9759   */\n      dup5\n        /* \"#utility.yul\":9752:9763   */\n      add\n        /* \"#utility.yul\":9745:9784   */\n      mstore\n        /* \"#utility.yul\":9717:9719   */\n      0x20\n        /* \"#utility.yul\":9714:9715   */\n      dup2\n        /* \"#utility.yul\":9710:9720   */\n      add\n        /* \"#utility.yul\":9705:9720   */\n      swap1\n      pop\n        /* \"#utility.yul\":9681:9794   */\n      jump(tag_204)\n    tag_206:\n        /* \"#utility.yul\":9812:9818   */\n      dup4\n        /* \"#utility.yul\":9809:9810   */\n      dup2\n        /* \"#utility.yul\":9806:9819   */\n      gt\n        /* \"#utility.yul\":9803:9904   */\n      iszero\n      tag_207\n      jumpi\n        /* \"#utility.yul\":9892:9893   */\n      0x00\n        /* \"#utility.yul\":9883:9889   */\n      dup5\n        /* \"#utility.yul\":9878:9881   */\n      dup5\n        /* \"#utility.yul\":9874:9890   */\n      add\n        /* \"#utility.yul\":9867:9894   */\n      mstore\n        /* \"#utility.yul\":9803:9904   */\n    tag_207:\n        /* \"#utility.yul\":9652:9910   */\n      pop\n        /* \"#utility.yul\":9603:9910   */\n      pop\n      pop\n      pop\n      jump\t// out\n        /* \"#utility.yul\":9916:10236   */\n    tag_54:\n        /* \"#utility.yul\":9960:9966   */\n      0x00\n        /* \"#utility.yul\":9997:9998   */\n      0x02\n        /* \"#utility.yul\":9991:9995   */\n      dup3\n        /* \"#utility.yul\":9987:9999   */\n      div\n        /* \"#utility.yul\":9977:9999   */\n      swap1\n      pop\n        /* \"#utility.yul\":10044:10045   */\n      0x01\n        /* \"#utility.yul\":10038:10042   */\n      dup3\n        /* \"#utility.yul\":10034:10046   */\n      and\n        /* \"#utility.yul\":10065:10083   */\n      dup1\n        /* \"#utility.yul\":10055:10136   */\n      tag_209\n      jumpi\n        /* \"#utility.yul\":10121:10125   */\n      0x7f\n        /* \"#utility.yul\":10113:10119   */\n      dup3\n        /* \"#utility.yul\":10109:10126   */\n      and\n        /* \"#utility.yul\":10099:10126   */\n      swap2\n      pop\n        /* \"#utility.yul\":10055:10136   */\n    tag_209:\n        /* \"#utility.yul\":10183:10185   */\n      0x20\n        /* \"#utility.yul\":10175:10181   */\n      dup3\n        /* \"#utility.yul\":10172:10186   */\n      lt\n        /* \"#utility.yul\":10152:10170   */\n      dup2\n        /* \"#utility.yul\":10149:10187   */\n      eq\n        /* \"#utility.yul\":10146:10230   */\n      iszero\n      tag_210\n      jumpi\n        /* \"#utility.yul\":10202:10220   */\n      tag_211\n      tag_212\n      jump\t// in\n    tag_211:\n        /* \"#utility.yul\":10146:10230   */\n    tag_210:\n        /* \"#utility.yul\":9967:10236   */\n      pop\n        /* \"#utility.yul\":9916:10236   */\n      swap2\n      swap1\n      pop\n      jump\t// out\n        /* \"#utility.yul\":10242:10523   */\n    tag_181:\n        /* \"#utility.yul\":10325:10352   */\n      tag_214\n        /* \"#utility.yul\":10347:10351   */\n      dup3\n        /* \"#utility.yul\":10325:10352   */\n      tag_140\n      jump\t// in\n    tag_214:\n        /* \"#utility.yul\":10317:10323   */\n      dup2\n        /* \"#utility.yul\":10313:10353   */\n      add\n        /* \"#utility.yul\":10455:10461   */\n      dup2\n        /* \"#utility.yul\":10443:10453   */\n      dup2\n        /* \"#utility.yul\":10440:10462   */\n      lt\n        /* \"#utility.yul\":10419:10437   */\n      0xffffffffffffffff\n        /* \"#utility.yul\":10407:10417   */\n      dup3\n        /* \"#utility.yul\":10404:10438   */\n      gt\n        /* \"#utility.yul\":10401:10463   */\n      or\n        /* \"#utility.yul\":10398:10486   */\n      iszero\n      tag_215\n      jumpi\n        /* \"#utility.yul\":10466:10484   */\n      tag_216\n      tag_186\n      jump\t// in\n    tag_216:\n        /* \"#utility.yul\":10398:10486   */\n    tag_215:\n        /* \"#utility.yul\":10506:10516   */\n      dup1\n        /* \"#utility.yul\":10502:10504   */\n      0x40\n        /* \"#utility.yul\":10495:10517   */\n      mstore\n        /* \"#utility.yul\":10285:10523   */\n      pop\n        /* \"#utility.yul\":10242:10523   */\n      pop\n      pop\n      jump\t// out\n        /* \"#utility.yul\":10529:10709   */\n    tag_212:\n        /* \"#utility.yul\":10577:10654   */\n      0x4e487b7100000000000000000000000000000000000000000000000000000000\n        /* \"#utility.yul\":10574:10575   */\n      0x00\n        /* \"#utility.yul\":10567:10655   */\n      mstore\n        /* \"#utility.yul\":10674:10678   */\n      0x22\n        /* \"#utility.yul\":10671:10672   */\n      0x04\n        /* \"#utility.yul\":10664:10679   */\n      mstore\n        /* \"#utility.yul\":10698:10702   */\n      0x24\n        /* \"#utility.yul\":10695:10696   */\n      0x00\n        /* \"#utility.yul\":10688:10703   */\n      revert\n        /* \"#utility.yul\":10715:10895   */\n    tag_186:\n        /* \"#utility.yul\":10763:10840   */\n      0x4e487b7100000000000000000000000000000000000000000000000000000000\n        /* \"#utility.yul\":10760:10761   */\n      0x00\n        /* \"#utility.yul\":10753:10841   */\n      mstore\n        /* \"#utility.yul\":10860:10864   */\n      0x41\n        /* \"#utility.yul\":10857:10858   */\n      0x04\n        /* \"#utility.yul\":10850:10865   */\n      mstore\n        /* \"#utility.yul\":10884:10888   */\n      0x24\n        /* \"#utility.yul\":10881:10882   */\n      0x00\n        /* \"#utility.yul\":10874:10889   */\n      revert\n        /* \"#utility.yul\":10901:11018   */\n    tag_85:\n        /* \"#utility.yul\":11010:11011   */\n      0x00\n        /* \"#utility.yul\":11007:11008   */\n      dup1\n        /* \"#utility.yul\":11000:11012   */\n      revert\n        /* \"#utility.yul\":11024:11141   */\n    tag_78:\n        /* \"#utility.yul\":11133:11134   */\n      0x00\n        /* \"#utility.yul\":11130:11131   */\n      dup1\n        /* \"#utility.yul\":11123:11135   */\n      revert\n        /* \"#utility.yul\":11147:11264   */\n    tag_97:\n        /* \"#utility.yul\":11256:11257   */\n      0x00\n        /* \"#utility.yul\":11253:11254   */\n      dup1\n        /* \"#utility.yul\":11246:11258   */\n      revert\n        /* \"#utility.yul\":11270:11387   */\n    tag_94:\n        /* \"#utility.yul\":11379:11380   */\n      0x00\n        /* \"#utility.yul\":11376:11377   */\n      dup1\n        /* \"#utility.yul\":11369:11381   */\n      revert\n        /* \"#utility.yul\":11393:11495   */\n    tag_140:\n        /* \"#utility.yul\":11434:11440   */\n      0x00\n        /* \"#utility.yul\":11485:11487   */\n      0x1f\n        /* \"#utility.yul\":11481:11488   */\n      not\n        /* \"#utility.yul\":11476:11478   */\n      0x1f\n        /* \"#utility.yul\":11469:11474   */\n      dup4\n        /* \"#utility.yul\":11465:11479   */\n      add\n        /* \"#utility.yul\":11461:11489   */\n      and\n        /* \"#utility.yul\":11451:11489   */\n      swap1\n      pop\n        /* \"#utility.yul\":11393:11495   */\n      swap2\n      swap1\n      pop\n      jump\t// out\n        /* \"#utility.yul\":11501:11732   */\n    tag_158:\n        /* \"#utility.yul\":11641:11675   */\n      0x4e6f207469656e6573207065726d69736f207061726120656a65637574617220\n        /* \"#utility.yul\":11637:11638   */\n      0x00\n        /* \"#utility.yul\":11629:11635   */\n      dup3\n        /* \"#utility.yul\":11625:11639   */\n      add\n        /* \"#utility.yul\":11618:11676   */\n      mstore\n        /* \"#utility.yul\":11710:11724   */\n      0x657374612066756e63696f6e0000000000000000000000000000000000000000\n        /* \"#utility.yul\":11705:11707   */\n      0x20\n        /* \"#utility.yul\":11697:11703   */\n      dup3\n        /* \"#utility.yul\":11693:11708   */\n      add\n        /* \"#utility.yul\":11686:11725   */\n      mstore\n        /* \"#utility.yul\":11501:11732   */\n      pop\n      jump\t// out\n        /* \"#utility.yul\":11738:11860   */\n    tag_90:\n        /* \"#utility.yul\":11811:11835   */\n      tag_226\n        /* \"#utility.yul\":11829:11834   */\n      dup2\n        /* \"#utility.yul\":11811:11835   */\n      tag_162\n      jump\t// in\n    tag_226:\n        /* \"#utility.yul\":11804:11809   */\n      dup2\n        /* \"#utility.yul\":11801:11836   */\n      eq\n        /* \"#utility.yul\":11791:11854   */\n      tag_227\n      jumpi\n        /* \"#utility.yul\":11850:11851   */\n      0x00\n        /* \"#utility.yul\":11847:11848   */\n      dup1\n        /* \"#utility.yul\":11840:11852   */\n      revert\n        /* \"#utility.yul\":11791:11854   */\n    tag_227:\n        /* \"#utility.yul\":11738:11860   */\n      pop\n      jump\t// out\n\n    auxdata: 0xa26469706673582212201ce3e0ddd29c7112e5633b9c0d3805bf40ff446a638313eb17848cb48d2e100764736f6c63430008070033\n}\n",
				"bytecode": {
					"linkReferences": {},
					"object": "6080604052336000806101000a81548173ffffffffffffffffffffffffffffffffffffffff021916908373ffffffffffffffffffffffffffffffffffffffff16021790555034801561005057600080fd5b50610b40806100606000396000f3fe608060405234801561001057600080fd5b50600436106100575760003560e01c8063040d9f601461005c5780632cd22cd81461007857806333731af614610094578063a03a4959146100c4578063df096576146100e2575b600080fd5b610076600480360381019061007191906105cb565b610100565b005b610092600480360381019061008d9190610582565b61020f565b005b6100ae60048036038101906100a99190610582565b610285565b6040516100bb9190610854565b60405180910390f35b6100cc6102cd565b6040516100d991906107d5565b60405180910390f35b6100ea610436565b6040516100f791906107ba565b60405180910390f35b338073ffffffffffffffffffffffffffffffffffffffff1660008054906101000a900473ffffffffffffffffffffffffffffffffffffffff1673ffffffffffffffffffffffffffffffffffffffff161461018f576040517f08c379a000000000000000000000000000000000000000000000000000000000815260040161018690610834565b60405180910390fd5b6000836040516020016101a291906107a3565b6040516020818303038152906040528051906020012090508260016000838152602001908152602001600020819055507fe04be7c051a61de1d1048634504027f18fbc1c23c5d3cdf1f27a826cbf31e05c8160405161020191906107f7565b60405180910390a150505050565b60028190806001815401808255809150506001900390600052602060002001600090919091909150908051906020019061024a92919061045a565b507fafd73f39162aa4c0421f362f3a3d26f44b23c73253256cfc1c68794b0973e0a08160405161027a9190610812565b60405180910390a150565b6000808260405160200161029991906107a3565b6040516020818303038152906040528051906020012090506001600082815260200190815260200160002054915050919050565b6060338073ffffffffffffffffffffffffffffffffffffffff1660008054906101000a900473ffffffffffffffffffffffffffffffffffffffff1673ffffffffffffffffffffffffffffffffffffffff161461035e576040517f08c379a000000000000000000000000000000000000000000000000000000000815260040161035590610834565b60405180910390fd5b6002805480602002602001604051908101604052809291908181526020016000905b8282101561042c57838290600052602060002001805461039f906109be565b80601f01602080910402602001604051908101604052809291908181526020018280546103cb906109be565b80156104185780601f106103ed57610100808354040283529160200191610418565b820191906000526020600020905b8154815290600101906020018083116103fb57829003601f168201915b505050505081526020019060010190610380565b5050505091505090565b60008054906101000a900473ffffffffffffffffffffffffffffffffffffffff1681565b828054610466906109be565b90600052602060002090601f01602090048101928261048857600085556104cf565b82601f106104a157805160ff19168380011785556104cf565b828001600101855582156104cf579182015b828111156104ce5782518255916020019190600101906104b3565b5b5090506104dc91906104e0565b5090565b5b808211156104f95760008160009055506001016104e1565b5090565b600061051061050b84610894565b61086f565b90508281526020810184848401111561052c5761052b610a84565b5b61053784828561097c565b509392505050565b600082601f83011261055457610553610a7f565b5b81356105648482602086016104fd565b91505092915050565b60008135905061057c81610af3565b92915050565b60006020828403121561059857610597610a8e565b5b600082013567ffffffffffffffff8111156105b6576105b5610a89565b5b6105c28482850161053f565b91505092915050565b600080604083850312156105e2576105e1610a8e565b5b600083013567ffffffffffffffff811115610600576105ff610a89565b5b61060c8582860161053f565b925050602061061d8582860161056d565b9150509250929050565b600061063383836106ce565b905092915050565b61064481610936565b82525050565b6000610655826108d5565b61065f81856108f8565b935083602082028501610671856108c5565b8060005b858110156106ad578484038952815161068e8582610627565b9450610699836108eb565b925060208a01995050600181019050610675565b50829750879550505050505092915050565b6106c881610948565b82525050565b60006106d9826108e0565b6106e38185610909565b93506106f381856020860161098b565b6106fc81610a93565b840191505092915050565b6000610712826108e0565b61071c818561091a565b935061072c81856020860161098b565b61073581610a93565b840191505092915050565b600061074b826108e0565b610755818561092b565b935061076581856020860161098b565b80840191505092915050565b600061077e602c8361091a565b915061078982610aa4565b604082019050919050565b61079d81610972565b82525050565b60006107af8284610740565b915081905092915050565b60006020820190506107cf600083018461063b565b92915050565b600060208201905081810360008301526107ef818461064a565b905092915050565b600060208201905061080c60008301846106bf565b92915050565b6000602082019050818103600083015261082c8184610707565b905092915050565b6000602082019050818103600083015261084d81610771565b9050919050565b60006020820190506108696000830184610794565b92915050565b600061087961088a565b905061088582826109f0565b919050565b6000604051905090565b600067ffffffffffffffff8211156108af576108ae610a50565b5b6108b882610a93565b9050602081019050919050565b6000819050602082019050919050565b600081519050919050565b600081519050919050565b6000602082019050919050565b600082825260208201905092915050565b600082825260208201905092915050565b600082825260208201905092915050565b600081905092915050565b600061094182610952565b9050919050565b6000819050919050565b600073ffffffffffffffffffffffffffffffffffffffff82169050919050565b6000819050919050565b82818337600083830152505050565b60005b838110156109a957808201518184015260208101905061098e565b838111156109b8576000848401525b50505050565b600060028204905060018216806109d657607f821691505b602082108114156109ea576109e9610a21565b5b50919050565b6109f982610a93565b810181811067ffffffffffffffff82111715610a1857610a17610a50565b5b80604052505050565b7f4e487b7100000000000000000000000000000000000000000000000000000000600052602260045260246000fd5b7f4e487b7100000000000000000000000000000000000000000000000000000000600052604160045260246000fd5b600080fd5b600080fd5b600080fd5b600080fd5b6000601f19601f8301169050919050565b7f4e6f207469656e6573207065726d69736f207061726120656a6563757461722060008201527f657374612066756e63696f6e0000000000000000000000000000000000000000602082015250565b610afc81610972565b8114610b0757600080fd5b5056fea26469706673582212201ce3e0ddd29c7112e5633b9c0d3805bf40ff446a638313eb17848cb48d2e100764736f6c63430008070033",
					"opcodes": "PUSH1 0x80 PUSH1 0x40 MSTORE CALLER PUSH1 0x0 DUP1 PUSH2 0x100 EXP DUP2 SLOAD DUP2 PUSH20 0xFFFFFFFFFFFFFFFFFFFFFFFFFFFFFFFFFFFFFFFF MUL NOT AND SWAP1 DUP4 PUSH20 0xFFFFFFFFFFFFFFFFFFFFFFFFFFFFFFFFFFFFFFFF AND MUL OR SWAP1 SSTORE POP CALLVALUE DUP1 ISZERO PUSH2 0x50 JUMPI PUSH1 0x0 DUP1 REVERT JUMPDEST POP PUSH2 0xB40 DUP1 PUSH2 0x60 PUSH1 0x0 CODECOPY PUSH1 0x0 RETURN INVALID PUSH1 0x80 PUSH1 0x40 MSTORE CALLVALUE DUP1 ISZERO PUSH2 0x10 JUMPI PUSH1 0x0 DUP1 REVERT JUMPDEST POP PUSH1 0x4 CALLDATASIZE LT PUSH2 0x57 JUMPI PUSH1 0x0 CALLDATALOAD PUSH1 0xE0 SHR DUP1 PUSH4 0x40D9F60 EQ PUSH2 0x5C JUMPI DUP1 PUSH4 0x2CD22CD8 EQ PUSH2 0x78 JUMPI DUP1 PUSH4 0x33731AF6 EQ PUSH2 0x94 JUMPI DUP1 PUSH4 0xA03A4959 EQ PUSH2 0xC4 JUMPI DUP1 PUSH4 0xDF096576 EQ PUSH2 0xE2 JUMPI JUMPDEST PUSH1 0x0 DUP1 REVERT JUMPDEST PUSH2 0x76 PUSH1 0x4 DUP1 CALLDATASIZE SUB DUP2 ADD SWAP1 PUSH2 0x71 SWAP2 SWAP1 PUSH2 0x5CB JUMP JUMPDEST PUSH2 0x100 JUMP JUMPDEST STOP JUMPDEST PUSH2 0x92 PUSH1 0x4 DUP1 CALLDATASIZE SUB DUP2 ADD SWAP1 PUSH2 0x8D SWAP2 SWAP1 PUSH2 0x582 JUMP JUMPDEST PUSH2 0x20F JUMP JUMPDEST STOP JUMPDEST PUSH2 0xAE PUSH1 0x4 DUP1 CALLDATASIZE SUB DUP2 ADD SWAP1 PUSH2 0xA9 SWAP2 SWAP1 PUSH2 0x582 JUMP JUMPDEST PUSH2 0x285 JUMP JUMPDEST PUSH1 0x40 MLOAD PUSH2 0xBB SWAP2 SWAP1 PUSH2 0x854 JUMP JUMPDEST PUSH1 0x40 MLOAD DUP1 SWAP2 SUB SWAP1 RETURN JUMPDEST PUSH2 0xCC PUSH2 0x2CD JUMP JUMPDEST PUSH1 0x40 MLOAD PUSH2 0xD9 SWAP2 SWAP1 PUSH2 0x7D5 JUMP JUMPDEST PUSH1 0x40 MLOAD DUP1 SWAP2 SUB SWAP1 RETURN JUMPDEST PUSH2 0xEA PUSH2 0x436 JUMP JUMPDEST PUSH1 0x40 MLOAD PUSH2 0xF7 SWAP2 SWAP1 PUSH2 0x7BA JUMP JUMPDEST PUSH1 0x40 MLOAD DUP1 SWAP2 SUB SWAP1 RETURN JUMPDEST CALLER DUP1 PUSH20 0xFFFFFFFFFFFFFFFFFFFFFFFFFFFFFFFFFFFFFFFF AND PUSH1 0x0 DUP1 SLOAD SWAP1 PUSH2 0x100 EXP SWAP1 DIV PUSH20 0xFFFFFFFFFFFFFFFFFFFFFFFFFFFFFFFFFFFFFFFF AND PUSH20 0xFFFFFFFFFFFFFFFFFFFFFFFFFFFFFFFFFFFFFFFF AND EQ PUSH2 0x18F JUMPI PUSH1 0x40 MLOAD PUSH32 0x8C379A000000000000000000000000000000000000000000000000000000000 DUP2 MSTORE PUSH1 0x4 ADD PUSH2 0x186 SWAP1 PUSH2 0x834 JUMP JUMPDEST PUSH1 0x40 MLOAD DUP1 SWAP2 SUB SWAP1 REVERT JUMPDEST PUSH1 0x0 DUP4 PUSH1 0x40 MLOAD PUSH1 0x20 ADD PUSH2 0x1A2 SWAP2 SWAP1 PUSH2 0x7A3 JUMP JUMPDEST PUSH1 0x40 MLOAD PUSH1 0x20 DUP2 DUP4 SUB SUB DUP2 MSTORE SWAP1 PUSH1 0x40 MSTORE DUP1 MLOAD SWAP1 PUSH1 0x20 ADD KECCAK256 SWAP1 POP DUP3 PUSH1 0x1 PUSH1 0x0 DUP4 DUP2 MSTORE PUSH1 0x20 ADD SWAP1 DUP2 MSTORE PUSH1 0x20 ADD PUSH1 0x0 KECCAK256 DUP2 SWAP1 SSTORE POP PUSH32 0xE04BE7C051A61DE1D1048634504027F18FBC1C23C5D3CDF1F27A826CBF31E05C DUP2 PUSH1 0x40 MLOAD PUSH2 0x201 SWAP2 SWAP1 PUSH2 0x7F7 JUMP JUMPDEST PUSH1 0x40 MLOAD DUP1 SWAP2 SUB SWAP1 LOG1 POP POP POP POP JUMP JUMPDEST PUSH1 0x2 DUP2 SWAP1 DUP1 PUSH1 0x1 DUP2 SLOAD ADD DUP1 DUP3 SSTORE DUP1 SWAP2 POP POP PUSH1 0x1 SWAP1 SUB SWAP1 PUSH1 0x0 MSTORE PUSH1 0x20 PUSH1 0x0 KECCAK256 ADD PUSH1 0x0 SWAP1 SWAP2 SWAP1 SWAP2 SWAP1 SWAP2 POP SWAP1 DUP1 MLOAD SWAP1 PUSH1 0x20 ADD SWAP1 PUSH2 0x24A SWAP3 SWAP2 SWAP1 PUSH2 0x45A JUMP JUMPDEST POP PUSH32 0xAFD73F39162AA4C0421F362F3A3D26F44B23C73253256CFC1C68794B0973E0A0 DUP2 PUSH1 0x40 MLOAD PUSH2 0x27A SWAP2 SWAP1 PUSH2 0x812 JUMP JUMPDEST PUSH1 0x40 MLOAD DUP1 SWAP2 SUB SWAP1 LOG1 POP JUMP JUMPDEST PUSH1 0x0 DUP1 DUP3 PUSH1 0x40 MLOAD PUSH1 0x20 ADD PUSH2 0x299 SWAP2 SWAP1 PUSH2 0x7A3 JUMP JUMPDEST PUSH1 0x40 MLOAD PUSH1 0x20 DUP2 DUP4 SUB SUB DUP2 MSTORE SWAP1 PUSH1 0x40 MSTORE DUP1 MLOAD SWAP1 PUSH1 0x20 ADD KECCAK256 SWAP1 POP PUSH1 0x1 PUSH1 0x0 DUP3 DUP2 MSTORE PUSH1 0x20 ADD SWAP1 DUP2 MSTORE PUSH1 0x20 ADD PUSH1 0x0 KECCAK256 SLOAD SWAP2 POP POP SWAP2 SWAP1 POP JUMP JUMPDEST PUSH1 0x60 CALLER DUP1 PUSH20 0xFFFFFFFFFFFFFFFFFFFFFFFFFFFFFFFFFFFFFFFF AND PUSH1 0x0 DUP1 SLOAD SWAP1 PUSH2 0x100 EXP SWAP1 DIV PUSH20 0xFFFFFFFFFFFFFFFFFFFFFFFFFFFFFFFFFFFFFFFF AND PUSH20 0xFFFFFFFFFFFFFFFFFFFFFFFFFFFFFFFFFFFFFFFF AND EQ PUSH2 0x35E JUMPI PUSH1 0x40 MLOAD PUSH32 0x8C379A000000000000000000000000000000000000000000000000000000000 DUP2 MSTORE PUSH1 0x4 ADD PUSH2 0x355 SWAP1 PUSH2 0x834 JUMP JUMPDEST PUSH1 0x40 MLOAD DUP1 SWAP2 SUB SWAP1 REVERT JUMPDEST PUSH1 0x2 DUP1 SLOAD DUP1 PUSH1 0x20 MUL PUSH1 0x20 ADD PUSH1 0x40 MLOAD SWAP1 DUP2 ADD PUSH1 0x40 MSTORE DUP1 SWAP3 SWAP2 SWAP1 DUP2 DUP2 MSTORE PUSH1 0x20 ADD PUSH1 0x0 SWAP1 JUMPDEST DUP3 DUP3 LT ISZERO PUSH2 0x42C JUMPI DUP4 DUP3 SWAP1 PUSH1 0x0 MSTORE PUSH1 0x20 PUSH1 0x0 KECCAK256 ADD DUP1 SLOAD PUSH2 0x39F SWAP1 PUSH2 0x9BE JUMP JUMPDEST DUP1 PUSH1 0x1F ADD PUSH1 0x20 DUP1 SWAP2 DIV MUL PUSH1 0x20 ADD PUSH1 0x40 MLOAD SWAP1 DUP2 ADD PUSH1 0x40 MSTORE DUP1 SWAP3 SWAP2 SWAP1 DUP2 DUP2 MSTORE PUSH1 0x20 ADD DUP3 DUP1 SLOAD PUSH2 0x3CB SWAP1 PUSH2 0x9BE JUMP JUMPDEST DUP1 ISZERO PUSH2 0x418 JUMPI DUP1 PUSH1 0x1F LT PUSH2 0x3ED JUMPI PUSH2 0x100 DUP1 DUP4 SLOAD DIV MUL DUP4 MSTORE SWAP2 PUSH1 0x20 ADD SWAP2 PUSH2 0x418 JUMP JUMPDEST DUP3 ADD SWAP2 SWAP1 PUSH1 0x0 MSTORE PUSH1 0x20 PUSH1 0x0 KECCAK256 SWAP1 JUMPDEST DUP2 SLOAD DUP2 MSTORE SWAP1 PUSH1 0x1 ADD SWAP1 PUSH1 0x20 ADD DUP1 DUP4 GT PUSH2 0x3FB JUMPI DUP3 SWAP1 SUB PUSH1 0x1F AND DUP3 ADD SWAP2 JUMPDEST POP POP POP POP POP DUP2 MSTORE PUSH1 0x20 ADD SWAP1 PUSH1 0x1 ADD SWAP1 PUSH2 0x380 JUMP JUMPDEST POP POP POP POP SWAP2 POP POP SWAP1 JUMP JUMPDEST PUSH1 0x0 DUP1 SLOAD SWAP1 PUSH2 0x100 EXP SWAP1 DIV PUSH20 0xFFFFFFFFFFFFFFFFFFFFFFFFFFFFFFFFFFFFFFFF AND DUP2 JUMP JUMPDEST DUP3 DUP1 SLOAD PUSH2 0x466 SWAP1 PUSH2 0x9BE JUMP JUMPDEST SWAP1 PUSH1 0x0 MSTORE PUSH1 0x20 PUSH1 0x0 KECCAK256 SWAP1 PUSH1 0x1F ADD PUSH1 0x20 SWAP1 DIV DUP2 ADD SWAP3 DUP3 PUSH2 0x488 JUMPI PUSH1 0x0 DUP6 SSTORE PUSH2 0x4CF JUMP JUMPDEST DUP3 PUSH1 0x1F LT PUSH2 0x4A1 JUMPI DUP1 MLOAD PUSH1 0xFF NOT AND DUP4 DUP1 ADD OR DUP6 SSTORE PUSH2 0x4CF JUMP JUMPDEST DUP3 DUP1 ADD PUSH1 0x1 ADD DUP6 SSTORE DUP3 ISZERO PUSH2 0x4CF JUMPI SWAP2 DUP3 ADD JUMPDEST DUP3 DUP2 GT ISZERO PUSH2 0x4CE JUMPI DUP3 MLOAD DUP3 SSTORE SWAP2 PUSH1 0x20 ADD SWAP2 SWAP1 PUSH1 0x1 ADD SWAP1 PUSH2 0x4B3 JUMP JUMPDEST JUMPDEST POP SWAP1 POP PUSH2 0x4DC SWAP2 SWAP1 PUSH2 0x4E0 JUMP JUMPDEST POP SWAP1 JUMP JUMPDEST JUMPDEST DUP1 DUP3 GT ISZERO PUSH2 0x4F9 JUMPI PUSH1 0x0 DUP2 PUSH1 0x0 SWAP1 SSTORE POP PUSH1 0x1 ADD PUSH2 0x4E1 JUMP JUMPDEST POP SWAP1 JUMP JUMPDEST PUSH1 0x0 PUSH2 0x510 PUSH2 0x50B DUP5 PUSH2 0x894 JUMP JUMPDEST PUSH2 0x86F JUMP JUMPDEST SWAP1 POP DUP3 DUP2 MSTORE PUSH1 0x20 DUP2 ADD DUP5 DUP5 DUP5 ADD GT ISZERO PUSH2 0x52C JUMPI PUSH2 0x52B PUSH2 0xA84 JUMP JUMPDEST JUMPDEST PUSH2 0x537 DUP5 DUP3 DUP6 PUSH2 0x97C JUMP JUMPDEST POP SWAP4 SWAP3 POP POP POP JUMP JUMPDEST PUSH1 0x0 DUP3 PUSH1 0x1F DUP4 ADD SLT PUSH2 0x554 JUMPI PUSH2 0x553 PUSH2 0xA7F JUMP JUMPDEST JUMPDEST DUP2 CALLDATALOAD PUSH2 0x564 DUP5 DUP3 PUSH1 0x20 DUP7 ADD PUSH2 0x4FD JUMP JUMPDEST SWAP2 POP POP SWAP3 SWAP2 POP POP JUMP JUMPDEST PUSH1 0x0 DUP2 CALLDATALOAD SWAP1 POP PUSH2 0x57C DUP2 PUSH2 0xAF3 JUMP JUMPDEST SWAP3 SWAP2 POP POP JUMP JUMPDEST PUSH1 0x0 PUSH1 0x20 DUP3 DUP5 SUB SLT ISZERO PUSH2 0x598 JUMPI PUSH2 0x597 PUSH2 0xA8E JUMP JUMPDEST JUMPDEST PUSH1 0x0 DUP3 ADD CALLDATALOAD PUSH8 0xFFFFFFFFFFFFFFFF DUP2 GT ISZERO PUSH2 0x5B6 JUMPI PUSH2 0x5B5 PUSH2 0xA89 JUMP JUMPDEST JUMPDEST PUSH2 0x5C2 DUP5 DUP3 DUP6 ADD PUSH2 0x53F JUMP JUMPDEST SWAP2 POP POP SWAP3 SWAP2 POP POP JUMP JUMPDEST PUSH1 0x0 DUP1 PUSH1 0x40 DUP4 DUP6 SUB SLT ISZERO PUSH2 0x5E2 JUMPI PUSH2 0x5E1 PUSH2 0xA8E JUMP JUMPDEST JUMPDEST PUSH1 0x0 DUP4 ADD CALLDATALOAD PUSH8 0xFFFFFFFFFFFFFFFF DUP2 GT ISZERO PUSH2 0x600 JUMPI PUSH2 0x5FF PUSH2 0xA89 JUMP JUMPDEST JUMPDEST PUSH2 0x60C DUP6 DUP3 DUP7 ADD PUSH2 0x53F JUMP JUMPDEST SWAP3 POP POP PUSH1 0x20 PUSH2 0x61D DUP6 DUP3 DUP7 ADD PUSH2 0x56D JUMP JUMPDEST SWAP2 POP POP SWAP3 POP SWAP3 SWAP1 POP JUMP JUMPDEST PUSH1 0x0 PUSH2 0x633 DUP4 DUP4 PUSH2 0x6CE JUMP JUMPDEST SWAP1 POP SWAP3 SWAP2 POP POP JUMP JUMPDEST PUSH2 0x644 DUP2 PUSH2 0x936 JUMP JUMPDEST DUP3 MSTORE POP POP JUMP JUMPDEST PUSH1 0x0 PUSH2 0x655 DUP3 PUSH2 0x8D5 JUMP JUMPDEST PUSH2 0x65F DUP2 DUP6 PUSH2 0x8F8 JUMP JUMPDEST SWAP4 POP DUP4 PUSH1 0x20 DUP3 MUL DUP6 ADD PUSH2 0x671 DUP6 PUSH2 0x8C5 JUMP JUMPDEST DUP1 PUSH1 0x0 JUMPDEST DUP6 DUP2 LT ISZERO PUSH2 0x6AD JUMPI DUP5 DUP5 SUB DUP10 MSTORE DUP2 MLOAD PUSH2 0x68E DUP6 DUP3 PUSH2 0x627 JUMP JUMPDEST SWAP5 POP PUSH2 0x699 DUP4 PUSH2 0x8EB JUMP JUMPDEST SWAP3 POP PUSH1 0x20 DUP11 ADD SWAP10 POP POP PUSH1 0x1 DUP2 ADD SWAP1 POP PUSH2 0x675 JUMP JUMPDEST POP DUP3 SWAP8 POP DUP8 SWAP6 POP POP POP POP POP POP SWAP3 SWAP2 POP POP JUMP JUMPDEST PUSH2 0x6C8 DUP2 PUSH2 0x948 JUMP JUMPDEST DUP3 MSTORE POP POP JUMP JUMPDEST PUSH1 0x0 PUSH2 0x6D9 DUP3 PUSH2 0x8E0 JUMP JUMPDEST PUSH2 0x6E3 DUP2 DUP6 PUSH2 0x909 JUMP JUMPDEST SWAP4 POP PUSH2 0x6F3 DUP2 DUP6 PUSH1 0x20 DUP7 ADD PUSH2 0x98B JUMP JUMPDEST PUSH2 0x6FC DUP2 PUSH2 0xA93 JUMP JUMPDEST DUP5 ADD SWAP2 POP POP SWAP3 SWAP2 POP POP JUMP JUMPDEST PUSH1 0x0 PUSH2 0x712 DUP3 PUSH2 0x8E0 JUMP JUMPDEST PUSH2 0x71C DUP2 DUP6 PUSH2 0x91A JUMP JUMPDEST SWAP4 POP PUSH2 0x72C DUP2 DUP6 PUSH1 0x20 DUP7 ADD PUSH2 0x98B JUMP JUMPDEST PUSH2 0x735 DUP2 PUSH2 0xA93 JUMP JUMPDEST DUP5 ADD SWAP2 POP POP SWAP3 SWAP2 POP POP JUMP JUMPDEST PUSH1 0x0 PUSH2 0x74B DUP3 PUSH2 0x8E0 JUMP JUMPDEST PUSH2 0x755 DUP2 DUP6 PUSH2 0x92B JUMP JUMPDEST SWAP4 POP PUSH2 0x765 DUP2 DUP6 PUSH1 0x20 DUP7 ADD PUSH2 0x98B JUMP JUMPDEST DUP1 DUP5 ADD SWAP2 POP POP SWAP3 SWAP2 POP POP JUMP JUMPDEST PUSH1 0x0 PUSH2 0x77E PUSH1 0x2C DUP4 PUSH2 0x91A JUMP JUMPDEST SWAP2 POP PUSH2 0x789 DUP3 PUSH2 0xAA4 JUMP JUMPDEST PUSH1 0x40 DUP3 ADD SWAP1 POP SWAP2 SWAP1 POP JUMP JUMPDEST PUSH2 0x79D DUP2 PUSH2 0x972 JUMP JUMPDEST DUP3 MSTORE POP POP JUMP JUMPDEST PUSH1 0x0 PUSH2 0x7AF DUP3 DUP5 PUSH2 0x740 JUMP JUMPDEST SWAP2 POP DUP2 SWAP1 POP SWAP3 SWAP2 POP POP JUMP JUMPDEST PUSH1 0x0 PUSH1 0x20 DUP3 ADD SWAP1 POP PUSH2 0x7CF PUSH1 0x0 DUP4 ADD DUP5 PUSH2 0x63B JUMP JUMPDEST SWAP3 SWAP2 POP POP JUMP JUMPDEST PUSH1 0x0 PUSH1 0x20 DUP3 ADD SWAP1 POP DUP2 DUP2 SUB PUSH1 0x0 DUP4 ADD MSTORE PUSH2 0x7EF DUP2 DUP5 PUSH2 0x64A JUMP JUMPDEST SWAP1 POP SWAP3 SWAP2 POP POP JUMP JUMPDEST PUSH1 0x0 PUSH1 0x20 DUP3 ADD SWAP1 POP PUSH2 0x80C PUSH1 0x0 DUP4 ADD DUP5 PUSH2 0x6BF JUMP JUMPDEST SWAP3 SWAP2 POP POP JUMP JUMPDEST PUSH1 0x0 PUSH1 0x20 DUP3 ADD SWAP1 POP DUP2 DUP2 SUB PUSH1 0x0 DUP4 ADD MSTORE PUSH2 0x82C DUP2 DUP5 PUSH2 0x707 JUMP JUMPDEST SWAP1 POP SWAP3 SWAP2 POP POP JUMP JUMPDEST PUSH1 0x0 PUSH1 0x20 DUP3 ADD SWAP1 POP DUP2 DUP2 SUB PUSH1 0x0 DUP4 ADD MSTORE PUSH2 0x84D DUP2 PUSH2 0x771 JUMP JUMPDEST SWAP1 POP SWAP2 SWAP1 POP JUMP JUMPDEST PUSH1 0x0 PUSH1 0x20 DUP3 ADD SWAP1 POP PUSH2 0x869 PUSH1 0x0 DUP4 ADD DUP5 PUSH2 0x794 JUMP JUMPDEST SWAP3 SWAP2 POP POP JUMP JUMPDEST PUSH1 0x0 PUSH2 0x879 PUSH2 0x88A JUMP JUMPDEST SWAP1 POP PUSH2 0x885 DUP3 DUP3 PUSH2 0x9F0 JUMP JUMPDEST SWAP2 SWAP1 POP JUMP JUMPDEST PUSH1 0x0 PUSH1 0x40 MLOAD SWAP1 POP SWAP1 JUMP JUMPDEST PUSH1 0x0 PUSH8 0xFFFFFFFFFFFFFFFF DUP3 GT ISZERO PUSH2 0x8AF JUMPI PUSH2 0x8AE PUSH2 0xA50 JUMP JUMPDEST JUMPDEST PUSH2 0x8B8 DUP3 PUSH2 0xA93 JUMP JUMPDEST SWAP1 POP PUSH1 0x20 DUP2 ADD SWAP1 POP SWAP2 SWAP1 POP JUMP JUMPDEST PUSH1 0x0 DUP2 SWAP1 POP PUSH1 0x20 DUP3 ADD SWAP1 POP SWAP2 SWAP1 POP JUMP JUMPDEST PUSH1 0x0 DUP2 MLOAD SWAP1 POP SWAP2 SWAP1 POP JUMP JUMPDEST PUSH1 0x0 DUP2 MLOAD SWAP1 POP SWAP2 SWAP1 POP JUMP JUMPDEST PUSH1 0x0 PUSH1 0x20 DUP3 ADD SWAP1 POP SWAP2 SWAP1 POP JUMP JUMPDEST PUSH1 0x0 DUP3 DUP3 MSTORE PUSH1 0x20 DUP3 ADD SWAP1 POP SWAP3 SWAP2 POP POP JUMP JUMPDEST PUSH1 0x0 DUP3 DUP3 MSTORE PUSH1 0x20 DUP3 ADD SWAP1 POP SWAP3 SWAP2 POP POP JUMP JUMPDEST PUSH1 0x0 DUP3 DUP3 MSTORE PUSH1 0x20 DUP3 ADD SWAP1 POP SWAP3 SWAP2 POP POP JUMP JUMPDEST PUSH1 0x0 DUP2 SWAP1 POP SWAP3 SWAP2 POP POP JUMP JUMPDEST PUSH1 0x0 PUSH2 0x941 DUP3 PUSH2 0x952 JUMP JUMPDEST SWAP1 POP SWAP2 SWAP1 POP JUMP JUMPDEST PUSH1 0x0 DUP2 SWAP1 POP SWAP2 SWAP1 POP JUMP JUMPDEST PUSH1 0x0 PUSH20 0xFFFFFFFFFFFFFFFFFFFFFFFFFFFFFFFFFFFFFFFF DUP3 AND SWAP1 POP SWAP2 SWAP1 POP JUMP JUMPDEST PUSH1 0x0 DUP2 SWAP1 POP SWAP2 SWAP1 POP JUMP JUMPDEST DUP3 DUP2 DUP4 CALLDATACOPY PUSH1 0x0 DUP4 DUP4 ADD MSTORE POP POP POP JUMP JUMPDEST PUSH1 0x0 JUMPDEST DUP4 DUP2 LT ISZERO PUSH2 0x9A9 JUMPI DUP1 DUP3 ADD MLOAD DUP2 DUP5 ADD MSTORE PUSH1 0x20 DUP2 ADD SWAP1 POP PUSH2 0x98E JUMP JUMPDEST DUP4 DUP2 GT ISZERO PUSH2 0x9B8 JUMPI PUSH1 0x0 DUP5 DUP5 ADD MSTORE JUMPDEST POP POP POP POP JUMP JUMPDEST PUSH1 0x0 PUSH1 0x2 DUP3 DIV SWAP1 POP PUSH1 0x1 DUP3 AND DUP1 PUSH2 0x9D6 JUMPI PUSH1 0x7F DUP3 AND SWAP2 POP JUMPDEST PUSH1 0x20 DUP3 LT DUP2 EQ ISZERO PUSH2 0x9EA JUMPI PUSH2 0x9E9 PUSH2 0xA21 JUMP JUMPDEST JUMPDEST POP SWAP2 SWAP1 POP JUMP JUMPDEST PUSH2 0x9F9 DUP3 PUSH2 0xA93 JUMP JUMPDEST DUP2 ADD DUP2 DUP2 LT PUSH8 0xFFFFFFFFFFFFFFFF DUP3 GT OR ISZERO PUSH2 0xA18 JUMPI PUSH2 0xA17 PUSH2 0xA50 JUMP JUMPDEST JUMPDEST DUP1 PUSH1 0x40 MSTORE POP POP POP JUMP JUMPDEST PUSH32 0x4E487B7100000000000000000000000000000000000000000000000000000000 PUSH1 0x0 MSTORE PUSH1 0x22 PUSH1 0x4 MSTORE PUSH1 0x24 PUSH1 0x0 REVERT JUMPDEST PUSH32 0x4E487B7100000000000000000000000000000000000000000000000000000000 PUSH1 0x0 MSTORE PUSH1 0x41 PUSH1 0x4 MSTORE PUSH1 0x24 PUSH1 0x0 REVERT JUMPDEST PUSH1 0x0 DUP1 REVERT JUMPDEST PUSH1 0x0 DUP1 REVERT JUMPDEST PUSH1 0x0 DUP1 REVERT JUMPDEST PUSH1 0x0 DUP1 REVERT JUMPDEST PUSH1 0x0 PUSH1 0x1F NOT PUSH1 0x1F DUP4 ADD AND SWAP1 POP SWAP2 SWAP1 POP JUMP JUMPDEST PUSH32 0x4E6F207469656E6573207065726D69736F207061726120656A65637574617220 PUSH1 0x0 DUP3 ADD MSTORE PUSH32 0x657374612066756E63696F6E0000000000000000000000000000000000000000 PUSH1 0x20 DUP3 ADD MSTORE POP JUMP JUMPDEST PUSH2 0xAFC DUP2 PUSH2 0x972 JUMP JUMPDEST DUP2 EQ PUSH2 0xB07 JUMPI PUSH1 0x0 DUP1 REVERT JUMPDEST POP JUMP INVALID LOG2 PUSH5 0x6970667358 0x22 SLT KECCAK256 SHR 0xE3 0xE0 0xDD 0xD2 SWAP13 PUSH18 0x12E5633B9C0D3805BF40FF446A638313EB17 DUP5 DUP13 0xB4 DUP14 0x2E LT SMOD PUSH5 0x736F6C6343 STOP ADDMOD SMOD STOP CALLER "
				},
				"gasEstimates": {
					"creation": {
						"codeDepositCost": "576000",
						"executionCost": "24872",
						"totalCost": "600872"
					},
					"external": {
						"Evaluar(string,uint256)": "infinite",
						"Revision(string)": "infinite",
						"VerNotas(string)": "infinite",
						"VerSolicitudes()": "infinite",
						"profesor()": "2577"
					}
				},
				"methodIdentifiers": {
					"Evaluar(string,uint256)": "040d9f60",
					"Revision(string)": "2cd22cd8",
					"VerNotas(string)": "33731af6",
					"VerSolicitudes()": "a03a4959",
					"profesor()": "df096576"
				}
			},
			"storageLayout": {
				"storage": [
					{
						"astId": 6,
						"contract": "NOTAS/notas.sol:notas",
						"label": "profesor",
						"offset": 0,
						"slot": "0",
						"type": "t_address"
					},
					{
						"astId": 10,
						"contract": "NOTAS/notas.sol:notas",
						"label": "Notas",
						"offset": 0,
						"slot": "1",
						"type": "t_mapping(t_bytes32,t_uint256)"
					},
					{
						"astId": 13,
						"contract": "NOTAS/notas.sol:notas",
						"label": "revisiones",
						"offset": 0,
						"slot": "2",
						"type": "t_array(t_string_storage)dyn_storage"
					}
				],
				"types": {
					"t_address": {
						"encoding": "inplace",
						"label": "address",
						"numberOfBytes": "20"
					},
					"t_array(t_string_storage)dyn_storage": {
						"base": "t_string_storage",
						"encoding": "dynamic_array",
						"label": "string[]",
						"numberOfBytes": "32"
					},
					"t_bytes32": {
						"encoding": "inplace",
						"label": "bytes32",
						"numberOfBytes": "32"
					},
					"t_mapping(t_bytes32,t_uint256)": {
						"encoding": "mapping",
						"key": "t_bytes32",
						"label": "mapping(bytes32 => uint256)",
						"numberOfBytes": "32",
						"value": "t_uint256"
					},
					"t_string_storage": {
						"encoding": "bytes",
						"label": "string",
						"numberOfBytes": "32"
					},
					"t_uint256": {
						"encoding": "inplace",
						"label": "uint256",
						"numberOfBytes": "32"
					}
				}
			},
			"userdoc": {
				"kind": "user",
				"methods": {},
				"version": 1
			}
		}
	}
}