{
	"NOTAS/notas.sol": {
		"notas": {
			"abi": [
				{
					"anonymous": false,
					"inputs": [
						{
							"indexed": false,
							"internalType": "bytes32",
							"name": "",
							"type": "bytes32"
						}
					],
					"name": "alumno_evalueado",
					"type": "event"
				},
				{
					"anonymous": false,
					"inputs": [
						{
							"indexed": false,
							"internalType": "string",
							"name": "",
							"type": "string"
						}
					],
					"name": "evento_revision",
					"type": "event"
				},
				{
					"inputs": [
						{
							"internalType": "string",
							"name": "_idAlumno",
							"type": "string"
						},
						{
							"internalType": "uint256",
							"name": "_nota",
							"type": "uint256"
						}
					],
					"name": "Evaluar",
					"outputs": [],
					"stateMutability": "nonpayable",
					"type": "function"
				},
				{
					"inputs": [],
					"name": "profesor",
					"outputs": [
						{
							"internalType": "address",
							"name": "",
							"type": "address"
						}
					],
					"stateMutability": "view",
					"type": "function"
				}
			],
			"devdoc": {
				"kind": "dev",
				"methods": {},
				"version": 1
			},
			"evm": {
				"assembly": "    /* \"NOTAS/notas.sol\":103:1231  contract notas {\r... */\n  mstore(0x40, 0x80)\n    /* \"NOTAS/notas.sol\":184:194  msg.sender */\n  caller\n    /* \"NOTAS/notas.sol\":158:194  address public profesor = msg.sender */\n  0x00\n  dup1\n  0x0100\n  exp\n  dup2\n  sload\n  dup2\n  0xffffffffffffffffffffffffffffffffffffffff\n  mul\n  not\n  and\n  swap1\n  dup4\n  0xffffffffffffffffffffffffffffffffffffffff\n  and\n  mul\n  or\n  swap1\n  sstore\n  pop\n    /* \"NOTAS/notas.sol\":103:1231  contract notas {\r... */\n  callvalue\n  dup1\n  iszero\n  tag_1\n  jumpi\n  0x00\n  dup1\n  revert\ntag_1:\n  pop\n  dataSize(sub_0)\n  dup1\n  dataOffset(sub_0)\n  0x00\n  codecopy\n  0x00\n  return\nstop\n\nsub_0: assembly {\n        /* \"NOTAS/notas.sol\":103:1231  contract notas {\r... */\n      mstore(0x40, 0x80)\n      callvalue\n      dup1\n      iszero\n      tag_1\n      jumpi\n      0x00\n      dup1\n      revert\n    tag_1:\n      pop\n      jumpi(tag_2, lt(calldatasize, 0x04))\n      shr(0xe0, calldataload(0x00))\n      dup1\n      0x040d9f60\n      eq\n      tag_3\n      jumpi\n      dup1\n      0xdf096576\n      eq\n      tag_4\n      jumpi\n    tag_2:\n      0x00\n      dup1\n      revert\n        /* \"NOTAS/notas.sol\":546:967  function Evaluar(string memory _idAlumno, uint _nota) public UnicamenteProfesor(msg.sender){\r... */\n    tag_3:\n      tag_5\n      0x04\n      dup1\n      calldatasize\n      sub\n      dup2\n      add\n      swap1\n      tag_6\n      swap2\n      swap1\n      tag_7\n      jump\t// in\n    tag_6:\n      tag_8\n      jump\t// in\n    tag_5:\n      stop\n        /* \"NOTAS/notas.sol\":158:194  address public profesor = msg.sender */\n    tag_4:\n      tag_9\n      tag_10\n      jump\t// in\n    tag_9:\n      mload(0x40)\n      tag_11\n      swap2\n      swap1\n      tag_12\n      jump\t// in\n    tag_11:\n      mload(0x40)\n      dup1\n      swap2\n      sub\n      swap1\n      return\n        /* \"NOTAS/notas.sol\":546:967  function Evaluar(string memory _idAlumno, uint _nota) public UnicamenteProfesor(msg.sender){\r... */\n    tag_8:\n        /* \"NOTAS/notas.sol\":626:636  msg.sender */\n      caller\n        /* \"NOTAS/notas.sol\":1149:1159  _direccion */\n      dup1\n        /* \"NOTAS/notas.sol\":1137:1159  profesor == _direccion */\n      0xffffffffffffffffffffffffffffffffffffffff\n      and\n        /* \"NOTAS/notas.sol\":1137:1145  profesor */\n      0x00\n      dup1\n      sload\n      swap1\n      0x0100\n      exp\n      swap1\n      div\n      0xffffffffffffffffffffffffffffffffffffffff\n      and\n        /* \"NOTAS/notas.sol\":1137:1159  profesor == _direccion */\n      0xffffffffffffffffffffffffffffffffffffffff\n      and\n      eq\n        /* \"NOTAS/notas.sol\":1129:1208  require(profesor == _direccion, \"No tienes permiso apra ejecutar esta funcion\") */\n      tag_14\n      jumpi\n      mload(0x40)\n      0x08c379a000000000000000000000000000000000000000000000000000000000\n      dup2\n      mstore\n      0x04\n      add\n      tag_15\n      swap1\n      tag_16\n      jump\t// in\n    tag_15:\n      mload(0x40)\n      dup1\n      swap2\n      sub\n      swap1\n      revert\n    tag_14:\n        /* \"NOTAS/notas.sol\":699:720  bytes32 hash_idAlumno */\n      0x00\n        /* \"NOTAS/notas.sol\":750:759  _idAlumno */\n      dup4\n        /* \"NOTAS/notas.sol\":733:760  abi.encodePacked(_idAlumno) */\n      add(0x20, mload(0x40))\n      tag_18\n      swap2\n      swap1\n      tag_19\n      jump\t// in\n    tag_18:\n      mload(0x40)\n      0x20\n      dup2\n      dup4\n      sub\n      sub\n      dup2\n      mstore\n      swap1\n      0x40\n      mstore\n        /* \"NOTAS/notas.sol\":723:761  keccak256(abi.encodePacked(_idAlumno)) */\n      dup1\n      mload\n      swap1\n      0x20\n      add\n      keccak256\n        /* \"NOTAS/notas.sol\":699:761  bytes32 hash_idAlumno = keccak256(abi.encodePacked(_idAlumno)) */\n      swap1\n      pop\n        /* \"NOTAS/notas.sol\":874:879  _nota */\n      dup3\n        /* \"NOTAS/notas.sol\":851:856  Notas */\n      0x01\n        /* \"NOTAS/notas.sol\":851:871  Notas[hash_idAlumno] */\n      0x00\n        /* \"NOTAS/notas.sol\":857:870  hash_idAlumno */\n      dup4\n        /* \"NOTAS/notas.sol\":851:871  Notas[hash_idAlumno] */\n      dup2\n      mstore\n      0x20\n      add\n      swap1\n      dup2\n      mstore\n      0x20\n      add\n      0x00\n      keccak256\n        /* \"NOTAS/notas.sol\":851:879  Notas[hash_idAlumno] = _nota */\n      dup2\n      swap1\n      sstore\n      pop\n        /* \"NOTAS/notas.sol\":928:959  alumno_evalueado(hash_idAlumno) */\n      0xe04be7c051a61de1d1048634504027f18fbc1c23c5d3cdf1f27a826cbf31e05c\n        /* \"NOTAS/notas.sol\":945:958  hash_idAlumno */\n      dup2\n        /* \"NOTAS/notas.sol\":928:959  alumno_evalueado(hash_idAlumno) */\n      mload(0x40)\n      tag_20\n      swap2\n      swap1\n      tag_21\n      jump\t// in\n    tag_20:\n      mload(0x40)\n      dup1\n      swap2\n      sub\n      swap1\n      log1\n        /* \"NOTAS/notas.sol\":637:967  {\r... */\n      pop\n        /* \"NOTAS/notas.sol\":546:967  function Evaluar(string memory _idAlumno, uint _nota) public UnicamenteProfesor(msg.sender){\r... */\n      pop\n      pop\n      pop\n      jump\t// out\n        /* \"NOTAS/notas.sol\":158:194  address public profesor = msg.sender */\n    tag_10:\n      0x00\n      dup1\n      sload\n      swap1\n      0x0100\n      exp\n      swap1\n      div\n      0xffffffffffffffffffffffffffffffffffffffff\n      and\n      dup2\n      jump\t// out\n        /* \"#utility.yul\":7:419   */\n    tag_23:\n        /* \"#utility.yul\":85:90   */\n      0x00\n        /* \"#utility.yul\":110:176   */\n      tag_25\n        /* \"#utility.yul\":126:175   */\n      tag_26\n        /* \"#utility.yul\":168:174   */\n      dup5\n        /* \"#utility.yul\":126:175   */\n      tag_27\n      jump\t// in\n    tag_26:\n        /* \"#utility.yul\":110:176   */\n      tag_28\n      jump\t// in\n    tag_25:\n        /* \"#utility.yul\":101:176   */\n      swap1\n      pop\n        /* \"#utility.yul\":199:205   */\n      dup3\n        /* \"#utility.yul\":192:197   */\n      dup2\n        /* \"#utility.yul\":185:206   */\n      mstore\n        /* \"#utility.yul\":237:241   */\n      0x20\n        /* \"#utility.yul\":230:235   */\n      dup2\n        /* \"#utility.yul\":226:242   */\n      add\n        /* \"#utility.yul\":275:278   */\n      dup5\n        /* \"#utility.yul\":266:272   */\n      dup5\n        /* \"#utility.yul\":261:264   */\n      dup5\n        /* \"#utility.yul\":257:273   */\n      add\n        /* \"#utility.yul\":254:279   */\n      gt\n        /* \"#utility.yul\":251:363   */\n      iszero\n      tag_29\n      jumpi\n        /* \"#utility.yul\":282:361   */\n      tag_30\n      tag_31\n      jump\t// in\n    tag_30:\n        /* \"#utility.yul\":251:363   */\n    tag_29:\n        /* \"#utility.yul\":372:413   */\n      tag_32\n        /* \"#utility.yul\":406:412   */\n      dup5\n        /* \"#utility.yul\":401:404   */\n      dup3\n        /* \"#utility.yul\":396:399   */\n      dup6\n        /* \"#utility.yul\":372:413   */\n      tag_33\n      jump\t// in\n    tag_32:\n        /* \"#utility.yul\":91:419   */\n      pop\n        /* \"#utility.yul\":7:419   */\n      swap4\n      swap3\n      pop\n      pop\n      pop\n      jump\t// out\n        /* \"#utility.yul\":439:779   */\n    tag_34:\n        /* \"#utility.yul\":495:500   */\n      0x00\n        /* \"#utility.yul\":544:547   */\n      dup3\n        /* \"#utility.yul\":537:541   */\n      0x1f\n        /* \"#utility.yul\":529:535   */\n      dup4\n        /* \"#utility.yul\":525:542   */\n      add\n        /* \"#utility.yul\":521:548   */\n      slt\n        /* \"#utility.yul\":511:633   */\n      tag_36\n      jumpi\n        /* \"#utility.yul\":552:631   */\n      tag_37\n      tag_38\n      jump\t// in\n    tag_37:\n        /* \"#utility.yul\":511:633   */\n    tag_36:\n        /* \"#utility.yul\":669:675   */\n      dup2\n        /* \"#utility.yul\":656:676   */\n      calldataload\n        /* \"#utility.yul\":694:773   */\n      tag_39\n        /* \"#utility.yul\":769:772   */\n      dup5\n        /* \"#utility.yul\":761:767   */\n      dup3\n        /* \"#utility.yul\":754:758   */\n      0x20\n        /* \"#utility.yul\":746:752   */\n      dup7\n        /* \"#utility.yul\":742:759   */\n      add\n        /* \"#utility.yul\":694:773   */\n      tag_23\n      jump\t// in\n    tag_39:\n        /* \"#utility.yul\":685:773   */\n      swap2\n      pop\n        /* \"#utility.yul\":501:779   */\n      pop\n        /* \"#utility.yul\":439:779   */\n      swap3\n      swap2\n      pop\n      pop\n      jump\t// out\n        /* \"#utility.yul\":785:924   */\n    tag_40:\n        /* \"#utility.yul\":831:836   */\n      0x00\n        /* \"#utility.yul\":869:875   */\n      dup2\n        /* \"#utility.yul\":856:876   */\n      calldataload\n        /* \"#utility.yul\":847:876   */\n      swap1\n      pop\n        /* \"#utility.yul\":885:918   */\n      tag_42\n        /* \"#utility.yul\":912:917   */\n      dup2\n        /* \"#utility.yul\":885:918   */\n      tag_43\n      jump\t// in\n    tag_42:\n        /* \"#utility.yul\":785:924   */\n      swap3\n      swap2\n      pop\n      pop\n      jump\t// out\n        /* \"#utility.yul\":930:1584   */\n    tag_7:\n        /* \"#utility.yul\":1008:1014   */\n      0x00\n        /* \"#utility.yul\":1016:1022   */\n      dup1\n        /* \"#utility.yul\":1065:1067   */\n      0x40\n        /* \"#utility.yul\":1053:1062   */\n      dup4\n        /* \"#utility.yul\":1044:1051   */\n      dup6\n        /* \"#utility.yul\":1040:1063   */\n      sub\n        /* \"#utility.yul\":1036:1068   */\n      slt\n        /* \"#utility.yul\":1033:1152   */\n      iszero\n      tag_45\n      jumpi\n        /* \"#utility.yul\":1071:1150   */\n      tag_46\n      tag_47\n      jump\t// in\n    tag_46:\n        /* \"#utility.yul\":1033:1152   */\n    tag_45:\n        /* \"#utility.yul\":1219:1220   */\n      0x00\n        /* \"#utility.yul\":1208:1217   */\n      dup4\n        /* \"#utility.yul\":1204:1221   */\n      add\n        /* \"#utility.yul\":1191:1222   */\n      calldataload\n        /* \"#utility.yul\":1249:1267   */\n      0xffffffffffffffff\n        /* \"#utility.yul\":1241:1247   */\n      dup2\n        /* \"#utility.yul\":1238:1268   */\n      gt\n        /* \"#utility.yul\":1235:1352   */\n      iszero\n      tag_48\n      jumpi\n        /* \"#utility.yul\":1271:1350   */\n      tag_49\n      tag_50\n      jump\t// in\n    tag_49:\n        /* \"#utility.yul\":1235:1352   */\n    tag_48:\n        /* \"#utility.yul\":1376:1439   */\n      tag_51\n        /* \"#utility.yul\":1431:1438   */\n      dup6\n        /* \"#utility.yul\":1422:1428   */\n      dup3\n        /* \"#utility.yul\":1411:1420   */\n      dup7\n        /* \"#utility.yul\":1407:1429   */\n      add\n        /* \"#utility.yul\":1376:1439   */\n      tag_34\n      jump\t// in\n    tag_51:\n        /* \"#utility.yul\":1366:1439   */\n      swap3\n      pop\n        /* \"#utility.yul\":1162:1449   */\n      pop\n        /* \"#utility.yul\":1488:1490   */\n      0x20\n        /* \"#utility.yul\":1514:1567   */\n      tag_52\n        /* \"#utility.yul\":1559:1566   */\n      dup6\n        /* \"#utility.yul\":1550:1556   */\n      dup3\n        /* \"#utility.yul\":1539:1548   */\n      dup7\n        /* \"#utility.yul\":1535:1557   */\n      add\n        /* \"#utility.yul\":1514:1567   */\n      tag_40\n      jump\t// in\n    tag_52:\n        /* \"#utility.yul\":1504:1567   */\n      swap2\n      pop\n        /* \"#utility.yul\":1459:1577   */\n      pop\n        /* \"#utility.yul\":930:1584   */\n      swap3\n      pop\n      swap3\n      swap1\n      pop\n      jump\t// out\n        /* \"#utility.yul\":1590:1708   */\n    tag_53:\n        /* \"#utility.yul\":1677:1701   */\n      tag_55\n        /* \"#utility.yul\":1695:1700   */\n      dup2\n        /* \"#utility.yul\":1677:1701   */\n      tag_56\n      jump\t// in\n    tag_55:\n        /* \"#utility.yul\":1672:1675   */\n      dup3\n        /* \"#utility.yul\":1665:1702   */\n      mstore\n        /* \"#utility.yul\":1590:1708   */\n      pop\n      pop\n      jump\t// out\n        /* \"#utility.yul\":1714:1832   */\n    tag_57:\n        /* \"#utility.yul\":1801:1825   */\n      tag_59\n        /* \"#utility.yul\":1819:1824   */\n      dup2\n        /* \"#utility.yul\":1801:1825   */\n      tag_60\n      jump\t// in\n    tag_59:\n        /* \"#utility.yul\":1796:1799   */\n      dup3\n        /* \"#utility.yul\":1789:1826   */\n      mstore\n        /* \"#utility.yul\":1714:1832   */\n      pop\n      pop\n      jump\t// out\n        /* \"#utility.yul\":1838:2215   */\n    tag_61:\n        /* \"#utility.yul\":1944:1947   */\n      0x00\n        /* \"#utility.yul\":1972:2011   */\n      tag_63\n        /* \"#utility.yul\":2005:2010   */\n      dup3\n        /* \"#utility.yul\":1972:2011   */\n      tag_64\n      jump\t// in\n    tag_63:\n        /* \"#utility.yul\":2027:2116   */\n      tag_65\n        /* \"#utility.yul\":2109:2115   */\n      dup2\n        /* \"#utility.yul\":2104:2107   */\n      dup6\n        /* \"#utility.yul\":2027:2116   */\n      tag_66\n      jump\t// in\n    tag_65:\n        /* \"#utility.yul\":2020:2116   */\n      swap4\n      pop\n        /* \"#utility.yul\":2125:2177   */\n      tag_67\n        /* \"#utility.yul\":2170:2176   */\n      dup2\n        /* \"#utility.yul\":2165:2168   */\n      dup6\n        /* \"#utility.yul\":2158:2162   */\n      0x20\n        /* \"#utility.yul\":2151:2156   */\n      dup7\n        /* \"#utility.yul\":2147:2163   */\n      add\n        /* \"#utility.yul\":2125:2177   */\n      tag_68\n      jump\t// in\n    tag_67:\n        /* \"#utility.yul\":2202:2208   */\n      dup1\n        /* \"#utility.yul\":2197:2200   */\n      dup5\n        /* \"#utility.yul\":2193:2209   */\n      add\n        /* \"#utility.yul\":2186:2209   */\n      swap2\n      pop\n        /* \"#utility.yul\":1948:2215   */\n      pop\n        /* \"#utility.yul\":1838:2215   */\n      swap3\n      swap2\n      pop\n      pop\n      jump\t// out\n        /* \"#utility.yul\":2221:2587   */\n    tag_69:\n        /* \"#utility.yul\":2363:2366   */\n      0x00\n        /* \"#utility.yul\":2384:2451   */\n      tag_71\n        /* \"#utility.yul\":2448:2450   */\n      0x2c\n        /* \"#utility.yul\":2443:2446   */\n      dup4\n        /* \"#utility.yul\":2384:2451   */\n      tag_72\n      jump\t// in\n    tag_71:\n        /* \"#utility.yul\":2377:2451   */\n      swap2\n      pop\n        /* \"#utility.yul\":2460:2553   */\n      tag_73\n        /* \"#utility.yul\":2549:2552   */\n      dup3\n        /* \"#utility.yul\":2460:2553   */\n      tag_74\n      jump\t// in\n    tag_73:\n        /* \"#utility.yul\":2578:2580   */\n      0x40\n        /* \"#utility.yul\":2573:2576   */\n      dup3\n        /* \"#utility.yul\":2569:2581   */\n      add\n        /* \"#utility.yul\":2562:2581   */\n      swap1\n      pop\n        /* \"#utility.yul\":2221:2587   */\n      swap2\n      swap1\n      pop\n      jump\t// out\n        /* \"#utility.yul\":2593:2868   */\n    tag_19:\n        /* \"#utility.yul\":2725:2728   */\n      0x00\n        /* \"#utility.yul\":2747:2842   */\n      tag_76\n        /* \"#utility.yul\":2838:2841   */\n      dup3\n        /* \"#utility.yul\":2829:2835   */\n      dup5\n        /* \"#utility.yul\":2747:2842   */\n      tag_61\n      jump\t// in\n    tag_76:\n        /* \"#utility.yul\":2740:2842   */\n      swap2\n      pop\n        /* \"#utility.yul\":2859:2862   */\n      dup2\n        /* \"#utility.yul\":2852:2862   */\n      swap1\n      pop\n        /* \"#utility.yul\":2593:2868   */\n      swap3\n      swap2\n      pop\n      pop\n      jump\t// out\n        /* \"#utility.yul\":2874:3096   */\n    tag_12:\n        /* \"#utility.yul\":2967:2971   */\n      0x00\n        /* \"#utility.yul\":3005:3007   */\n      0x20\n        /* \"#utility.yul\":2994:3003   */\n      dup3\n        /* \"#utility.yul\":2990:3008   */\n      add\n        /* \"#utility.yul\":2982:3008   */\n      swap1\n      pop\n        /* \"#utility.yul\":3018:3089   */\n      tag_78\n        /* \"#utility.yul\":3086:3087   */\n      0x00\n        /* \"#utility.yul\":3075:3084   */\n      dup4\n        /* \"#utility.yul\":3071:3088   */\n      add\n        /* \"#utility.yul\":3062:3068   */\n      dup5\n        /* \"#utility.yul\":3018:3089   */\n      tag_53\n      jump\t// in\n    tag_78:\n        /* \"#utility.yul\":2874:3096   */\n      swap3\n      swap2\n      pop\n      pop\n      jump\t// out\n        /* \"#utility.yul\":3102:3324   */\n    tag_21:\n        /* \"#utility.yul\":3195:3199   */\n      0x00\n        /* \"#utility.yul\":3233:3235   */\n      0x20\n        /* \"#utility.yul\":3222:3231   */\n      dup3\n        /* \"#utility.yul\":3218:3236   */\n      add\n        /* \"#utility.yul\":3210:3236   */\n      swap1\n      pop\n        /* \"#utility.yul\":3246:3317   */\n      tag_80\n        /* \"#utility.yul\":3314:3315   */\n      0x00\n        /* \"#utility.yul\":3303:3312   */\n      dup4\n        /* \"#utility.yul\":3299:3316   */\n      add\n        /* \"#utility.yul\":3290:3296   */\n      dup5\n        /* \"#utility.yul\":3246:3317   */\n      tag_57\n      jump\t// in\n    tag_80:\n        /* \"#utility.yul\":3102:3324   */\n      swap3\n      swap2\n      pop\n      pop\n      jump\t// out\n        /* \"#utility.yul\":3330:3749   */\n    tag_16:\n        /* \"#utility.yul\":3496:3500   */\n      0x00\n        /* \"#utility.yul\":3534:3536   */\n      0x20\n        /* \"#utility.yul\":3523:3532   */\n      dup3\n        /* \"#utility.yul\":3519:3537   */\n      add\n        /* \"#utility.yul\":3511:3537   */\n      swap1\n      pop\n        /* \"#utility.yul\":3583:3592   */\n      dup2\n        /* \"#utility.yul\":3577:3581   */\n      dup2\n        /* \"#utility.yul\":3573:3593   */\n      sub\n        /* \"#utility.yul\":3569:3570   */\n      0x00\n        /* \"#utility.yul\":3558:3567   */\n      dup4\n        /* \"#utility.yul\":3554:3571   */\n      add\n        /* \"#utility.yul\":3547:3594   */\n      mstore\n        /* \"#utility.yul\":3611:3742   */\n      tag_82\n        /* \"#utility.yul\":3737:3741   */\n      dup2\n        /* \"#utility.yul\":3611:3742   */\n      tag_69\n      jump\t// in\n    tag_82:\n        /* \"#utility.yul\":3603:3742   */\n      swap1\n      pop\n        /* \"#utility.yul\":3330:3749   */\n      swap2\n      swap1\n      pop\n      jump\t// out\n        /* \"#utility.yul\":3755:3884   */\n    tag_28:\n        /* \"#utility.yul\":3789:3795   */\n      0x00\n        /* \"#utility.yul\":3816:3836   */\n      tag_84\n      tag_85\n      jump\t// in\n    tag_84:\n        /* \"#utility.yul\":3806:3836   */\n      swap1\n      pop\n        /* \"#utility.yul\":3845:3878   */\n      tag_86\n        /* \"#utility.yul\":3873:3877   */\n      dup3\n        /* \"#utility.yul\":3865:3871   */\n      dup3\n        /* \"#utility.yul\":3845:3878   */\n      tag_87\n      jump\t// in\n    tag_86:\n        /* \"#utility.yul\":3755:3884   */\n      swap2\n      swap1\n      pop\n      jump\t// out\n        /* \"#utility.yul\":3890:3965   */\n    tag_85:\n        /* \"#utility.yul\":3923:3929   */\n      0x00\n        /* \"#utility.yul\":3956:3958   */\n      0x40\n        /* \"#utility.yul\":3950:3959   */\n      mload\n        /* \"#utility.yul\":3940:3959   */\n      swap1\n      pop\n        /* \"#utility.yul\":3890:3965   */\n      swap1\n      jump\t// out\n        /* \"#utility.yul\":3971:4279   */\n    tag_27:\n        /* \"#utility.yul\":4033:4037   */\n      0x00\n        /* \"#utility.yul\":4123:4141   */\n      0xffffffffffffffff\n        /* \"#utility.yul\":4115:4121   */\n      dup3\n        /* \"#utility.yul\":4112:4142   */\n      gt\n        /* \"#utility.yul\":4109:4165   */\n      iszero\n      tag_90\n      jumpi\n        /* \"#utility.yul\":4145:4163   */\n      tag_91\n      tag_92\n      jump\t// in\n    tag_91:\n        /* \"#utility.yul\":4109:4165   */\n    tag_90:\n        /* \"#utility.yul\":4183:4212   */\n      tag_93\n        /* \"#utility.yul\":4205:4211   */\n      dup3\n        /* \"#utility.yul\":4183:4212   */\n      tag_94\n      jump\t// in\n    tag_93:\n        /* \"#utility.yul\":4175:4212   */\n      swap1\n      pop\n        /* \"#utility.yul\":4267:4271   */\n      0x20\n        /* \"#utility.yul\":4261:4265   */\n      dup2\n        /* \"#utility.yul\":4257:4272   */\n      add\n        /* \"#utility.yul\":4249:4272   */\n      swap1\n      pop\n        /* \"#utility.yul\":3971:4279   */\n      swap2\n      swap1\n      pop\n      jump\t// out\n        /* \"#utility.yul\":4285:4384   */\n    tag_64:\n        /* \"#utility.yul\":4337:4343   */\n      0x00\n        /* \"#utility.yul\":4371:4376   */\n      dup2\n        /* \"#utility.yul\":4365:4377   */\n      mload\n        /* \"#utility.yul\":4355:4377   */\n      swap1\n      pop\n        /* \"#utility.yul\":4285:4384   */\n      swap2\n      swap1\n      pop\n      jump\t// out\n        /* \"#utility.yul\":4390:4559   */\n    tag_72:\n        /* \"#utility.yul\":4474:4485   */\n      0x00\n        /* \"#utility.yul\":4508:4514   */\n      dup3\n        /* \"#utility.yul\":4503:4506   */\n      dup3\n        /* \"#utility.yul\":4496:4515   */\n      mstore\n        /* \"#utility.yul\":4548:4552   */\n      0x20\n        /* \"#utility.yul\":4543:4546   */\n      dup3\n        /* \"#utility.yul\":4539:4553   */\n      add\n        /* \"#utility.yul\":4524:4553   */\n      swap1\n      pop\n        /* \"#utility.yul\":4390:4559   */\n      swap3\n      swap2\n      pop\n      pop\n      jump\t// out\n        /* \"#utility.yul\":4565:4713   */\n    tag_66:\n        /* \"#utility.yul\":4667:4678   */\n      0x00\n        /* \"#utility.yul\":4704:4707   */\n      dup2\n        /* \"#utility.yul\":4689:4707   */\n      swap1\n      pop\n        /* \"#utility.yul\":4565:4713   */\n      swap3\n      swap2\n      pop\n      pop\n      jump\t// out\n        /* \"#utility.yul\":4719:4815   */\n    tag_56:\n        /* \"#utility.yul\":4756:4763   */\n      0x00\n        /* \"#utility.yul\":4785:4809   */\n      tag_99\n        /* \"#utility.yul\":4803:4808   */\n      dup3\n        /* \"#utility.yul\":4785:4809   */\n      tag_100\n      jump\t// in\n    tag_99:\n        /* \"#utility.yul\":4774:4809   */\n      swap1\n      pop\n        /* \"#utility.yul\":4719:4815   */\n      swap2\n      swap1\n      pop\n      jump\t// out\n        /* \"#utility.yul\":4821:4898   */\n    tag_60:\n        /* \"#utility.yul\":4858:4865   */\n      0x00\n        /* \"#utility.yul\":4887:4892   */\n      dup2\n        /* \"#utility.yul\":4876:4892   */\n      swap1\n      pop\n        /* \"#utility.yul\":4821:4898   */\n      swap2\n      swap1\n      pop\n      jump\t// out\n        /* \"#utility.yul\":4904:5030   */\n    tag_100:\n        /* \"#utility.yul\":4941:4948   */\n      0x00\n        /* \"#utility.yul\":4981:5023   */\n      0xffffffffffffffffffffffffffffffffffffffff\n        /* \"#utility.yul\":4974:4979   */\n      dup3\n        /* \"#utility.yul\":4970:5024   */\n      and\n        /* \"#utility.yul\":4959:5024   */\n      swap1\n      pop\n        /* \"#utility.yul\":4904:5030   */\n      swap2\n      swap1\n      pop\n      jump\t// out\n        /* \"#utility.yul\":5036:5113   */\n    tag_103:\n        /* \"#utility.yul\":5073:5080   */\n      0x00\n        /* \"#utility.yul\":5102:5107   */\n      dup2\n        /* \"#utility.yul\":5091:5107   */\n      swap1\n      pop\n        /* \"#utility.yul\":5036:5113   */\n      swap2\n      swap1\n      pop\n      jump\t// out\n        /* \"#utility.yul\":5119:5273   */\n    tag_33:\n        /* \"#utility.yul\":5203:5209   */\n      dup3\n        /* \"#utility.yul\":5198:5201   */\n      dup2\n        /* \"#utility.yul\":5193:5196   */\n      dup4\n        /* \"#utility.yul\":5180:5210   */\n      calldatacopy\n        /* \"#utility.yul\":5265:5266   */\n      0x00\n        /* \"#utility.yul\":5256:5262   */\n      dup4\n        /* \"#utility.yul\":5251:5254   */\n      dup4\n        /* \"#utility.yul\":5247:5263   */\n      add\n        /* \"#utility.yul\":5240:5267   */\n      mstore\n        /* \"#utility.yul\":5119:5273   */\n      pop\n      pop\n      pop\n      jump\t// out\n        /* \"#utility.yul\":5279:5586   */\n    tag_68:\n        /* \"#utility.yul\":5347:5348   */\n      0x00\n        /* \"#utility.yul\":5357:5470   */\n    tag_107:\n        /* \"#utility.yul\":5371:5377   */\n      dup4\n        /* \"#utility.yul\":5368:5369   */\n      dup2\n        /* \"#utility.yul\":5365:5378   */\n      lt\n        /* \"#utility.yul\":5357:5470   */\n      iszero\n      tag_109\n      jumpi\n        /* \"#utility.yul\":5456:5457   */\n      dup1\n        /* \"#utility.yul\":5451:5454   */\n      dup3\n        /* \"#utility.yul\":5447:5458   */\n      add\n        /* \"#utility.yul\":5441:5459   */\n      mload\n        /* \"#utility.yul\":5437:5438   */\n      dup2\n        /* \"#utility.yul\":5432:5435   */\n      dup5\n        /* \"#utility.yul\":5428:5439   */\n      add\n        /* \"#utility.yul\":5421:5460   */\n      mstore\n        /* \"#utility.yul\":5393:5395   */\n      0x20\n        /* \"#utility.yul\":5390:5391   */\n      dup2\n        /* \"#utility.yul\":5386:5396   */\n      add\n        /* \"#utility.yul\":5381:5396   */\n      swap1\n      pop\n        /* \"#utility.yul\":5357:5470   */\n      jump(tag_107)\n    tag_109:\n        /* \"#utility.yul\":5488:5494   */\n      dup4\n        /* \"#utility.yul\":5485:5486   */\n      dup2\n        /* \"#utility.yul\":5482:5495   */\n      gt\n        /* \"#utility.yul\":5479:5580   */\n      iszero\n      tag_110\n      jumpi\n        /* \"#utility.yul\":5568:5569   */\n      0x00\n        /* \"#utility.yul\":5559:5565   */\n      dup5\n        /* \"#utility.yul\":5554:5557   */\n      dup5\n        /* \"#utility.yul\":5550:5566   */\n      add\n        /* \"#utility.yul\":5543:5570   */\n      mstore\n        /* \"#utility.yul\":5479:5580   */\n    tag_110:\n        /* \"#utility.yul\":5328:5586   */\n      pop\n        /* \"#utility.yul\":5279:5586   */\n      pop\n      pop\n      pop\n      jump\t// out\n        /* \"#utility.yul\":5592:5873   */\n    tag_87:\n        /* \"#utility.yul\":5675:5702   */\n      tag_112\n        /* \"#utility.yul\":5697:5701   */\n      dup3\n        /* \"#utility.yul\":5675:5702   */\n      tag_94\n      jump\t// in\n    tag_112:\n        /* \"#utility.yul\":5667:5673   */\n      dup2\n        /* \"#utility.yul\":5663:5703   */\n      add\n        /* \"#utility.yul\":5805:5811   */\n      dup2\n        /* \"#utility.yul\":5793:5803   */\n      dup2\n        /* \"#utility.yul\":5790:5812   */\n      lt\n        /* \"#utility.yul\":5769:5787   */\n      0xffffffffffffffff\n        /* \"#utility.yul\":5757:5767   */\n      dup3\n        /* \"#utility.yul\":5754:5788   */\n      gt\n        /* \"#utility.yul\":5751:5813   */\n      or\n        /* \"#utility.yul\":5748:5836   */\n      iszero\n      tag_113\n      jumpi\n        /* \"#utility.yul\":5816:5834   */\n      tag_114\n      tag_92\n      jump\t// in\n    tag_114:\n        /* \"#utility.yul\":5748:5836   */\n    tag_113:\n        /* \"#utility.yul\":5856:5866   */\n      dup1\n        /* \"#utility.yul\":5852:5854   */\n      0x40\n        /* \"#utility.yul\":5845:5867   */\n      mstore\n        /* \"#utility.yul\":5635:5873   */\n      pop\n        /* \"#utility.yul\":5592:5873   */\n      pop\n      pop\n      jump\t// out\n        /* \"#utility.yul\":5879:6059   */\n    tag_92:\n        /* \"#utility.yul\":5927:6004   */\n      0x4e487b7100000000000000000000000000000000000000000000000000000000\n        /* \"#utility.yul\":5924:5925   */\n      0x00\n        /* \"#utility.yul\":5917:6005   */\n      mstore\n        /* \"#utility.yul\":6024:6028   */\n      0x41\n        /* \"#utility.yul\":6021:6022   */\n      0x04\n        /* \"#utility.yul\":6014:6029   */\n      mstore\n        /* \"#utility.yul\":6048:6052   */\n      0x24\n        /* \"#utility.yul\":6045:6046   */\n      0x00\n        /* \"#utility.yul\":6038:6053   */\n      revert\n        /* \"#utility.yul\":6065:6182   */\n    tag_38:\n        /* \"#utility.yul\":6174:6175   */\n      0x00\n        /* \"#utility.yul\":6171:6172   */\n      dup1\n        /* \"#utility.yul\":6164:6176   */\n      revert\n        /* \"#utility.yul\":6188:6305   */\n    tag_31:\n        /* \"#utility.yul\":6297:6298   */\n      0x00\n        /* \"#utility.yul\":6294:6295   */\n      dup1\n        /* \"#utility.yul\":6287:6299   */\n      revert\n        /* \"#utility.yul\":6311:6428   */\n    tag_50:\n        /* \"#utility.yul\":6420:6421   */\n      0x00\n        /* \"#utility.yul\":6417:6418   */\n      dup1\n        /* \"#utility.yul\":6410:6422   */\n      revert\n        /* \"#utility.yul\":6434:6551   */\n    tag_47:\n        /* \"#utility.yul\":6543:6544   */\n      0x00\n        /* \"#utility.yul\":6540:6541   */\n      dup1\n        /* \"#utility.yul\":6533:6545   */\n      revert\n        /* \"#utility.yul\":6557:6659   */\n    tag_94:\n        /* \"#utility.yul\":6598:6604   */\n      0x00\n        /* \"#utility.yul\":6649:6651   */\n      0x1f\n        /* \"#utility.yul\":6645:6652   */\n      not\n        /* \"#utility.yul\":6640:6642   */\n      0x1f\n        /* \"#utility.yul\":6633:6638   */\n      dup4\n        /* \"#utility.yul\":6629:6643   */\n      add\n        /* \"#utility.yul\":6625:6653   */\n      and\n        /* \"#utility.yul\":6615:6653   */\n      swap1\n      pop\n        /* \"#utility.yul\":6557:6659   */\n      swap2\n      swap1\n      pop\n      jump\t// out\n        /* \"#utility.yul\":6665:6896   */\n    tag_74:\n        /* \"#utility.yul\":6805:6839   */\n      0x4e6f207469656e6573207065726d69736f206170726120656a65637574617220\n        /* \"#utility.yul\":6801:6802   */\n      0x00\n        /* \"#utility.yul\":6793:6799   */\n      dup3\n        /* \"#utility.yul\":6789:6803   */\n      add\n        /* \"#utility.yul\":6782:6840   */\n      mstore\n        /* \"#utility.yul\":6874:6888   */\n      0x657374612066756e63696f6e0000000000000000000000000000000000000000\n        /* \"#utility.yul\":6869:6871   */\n      0x20\n        /* \"#utility.yul\":6861:6867   */\n      dup3\n        /* \"#utility.yul\":6857:6872   */\n      add\n        /* \"#utility.yul\":6850:6889   */\n      mstore\n        /* \"#utility.yul\":6665:6896   */\n      pop\n      jump\t// out\n        /* \"#utility.yul\":6902:7024   */\n    tag_43:\n        /* \"#utility.yul\":6975:6999   */\n      tag_123\n        /* \"#utility.yul\":6993:6998   */\n      dup2\n        /* \"#utility.yul\":6975:6999   */\n      tag_103\n      jump\t// in\n    tag_123:\n        /* \"#utility.yul\":6968:6973   */\n      dup2\n        /* \"#utility.yul\":6965:7000   */\n      eq\n        /* \"#utility.yul\":6955:7018   */\n      tag_124\n      jumpi\n        /* \"#utility.yul\":7014:7015   */\n      0x00\n        /* \"#utility.yul\":7011:7012   */\n      dup1\n        /* \"#utility.yul\":7004:7016   */\n      revert\n        /* \"#utility.yul\":6955:7018   */\n    tag_124:\n        /* \"#utility.yul\":6902:7024   */\n      pop\n      jump\t// out\n\n    auxdata: 0xa2646970667358221220af96adf949544e336b85274d7da5c0cee60fe0a7483480e866c6527bb374774264736f6c63430008070033\n}\n",
				"bytecode": {
					"linkReferences": {},
					"object": "6080604052336000806101000a81548173ffffffffffffffffffffffffffffffffffffffff021916908373ffffffffffffffffffffffffffffffffffffffff16021790555034801561005057600080fd5b5061058e806100606000396000f3fe608060405234801561001057600080fd5b50600436106100365760003560e01c8063040d9f601461003b578063df09657614610057575b600080fd5b6100556004803603810190610050919061022d565b610075565b005b61005f610184565b60405161006c9190610312565b60405180910390f35b338073ffffffffffffffffffffffffffffffffffffffff1660008054906101000a900473ffffffffffffffffffffffffffffffffffffffff1673ffffffffffffffffffffffffffffffffffffffff1614610104576040517f08c379a00000000000000000000000000000000000000000000000000000000081526004016100fb90610348565b60405180910390fd5b60008360405160200161011791906102fb565b6040516020818303038152906040528051906020012090508260016000838152602001908152602001600020819055507fe04be7c051a61de1d1048634504027f18fbc1c23c5d3cdf1f27a826cbf31e05c81604051610176919061032d565b60405180910390a150505050565b60008054906101000a900473ffffffffffffffffffffffffffffffffffffffff1681565b60006101bb6101b68461038d565b610368565b9050828152602081018484840111156101d7576101d66104d2565b5b6101e284828561042b565b509392505050565b600082601f8301126101ff576101fe6104cd565b5b813561020f8482602086016101a8565b91505092915050565b60008135905061022781610541565b92915050565b60008060408385031215610244576102436104dc565b5b600083013567ffffffffffffffff811115610262576102616104d7565b5b61026e858286016101ea565b925050602061027f85828601610218565b9150509250929050565b610292816103e5565b82525050565b6102a1816103f7565b82525050565b60006102b2826103be565b6102bc81856103da565b93506102cc81856020860161043a565b80840191505092915050565b60006102e5602c836103c9565b91506102f0826104f2565b604082019050919050565b600061030782846102a7565b915081905092915050565b60006020820190506103276000830184610289565b92915050565b60006020820190506103426000830184610298565b92915050565b60006020820190508181036000830152610361816102d8565b9050919050565b6000610372610383565b905061037e828261046d565b919050565b6000604051905090565b600067ffffffffffffffff8211156103a8576103a761049e565b5b6103b1826104e1565b9050602081019050919050565b600081519050919050565b600082825260208201905092915050565b600081905092915050565b60006103f082610401565b9050919050565b6000819050919050565b600073ffffffffffffffffffffffffffffffffffffffff82169050919050565b6000819050919050565b82818337600083830152505050565b60005b8381101561045857808201518184015260208101905061043d565b83811115610467576000848401525b50505050565b610476826104e1565b810181811067ffffffffffffffff821117156104955761049461049e565b5b80604052505050565b7f4e487b7100000000000000000000000000000000000000000000000000000000600052604160045260246000fd5b600080fd5b600080fd5b600080fd5b600080fd5b6000601f19601f8301169050919050565b7f4e6f207469656e6573207065726d69736f206170726120656a6563757461722060008201527f657374612066756e63696f6e0000000000000000000000000000000000000000602082015250565b61054a81610421565b811461055557600080fd5b5056fea2646970667358221220af96adf949544e336b85274d7da5c0cee60fe0a7483480e866c6527bb374774264736f6c63430008070033",
					"opcodes": "PUSH1 0x80 PUSH1 0x40 MSTORE CALLER PUSH1 0x0 DUP1 PUSH2 0x100 EXP DUP2 SLOAD DUP2 PUSH20 0xFFFFFFFFFFFFFFFFFFFFFFFFFFFFFFFFFFFFFFFF MUL NOT AND SWAP1 DUP4 PUSH20 0xFFFFFFFFFFFFFFFFFFFFFFFFFFFFFFFFFFFFFFFF AND MUL OR SWAP1 SSTORE POP CALLVALUE DUP1 ISZERO PUSH2 0x50 JUMPI PUSH1 0x0 DUP1 REVERT JUMPDEST POP PUSH2 0x58E DUP1 PUSH2 0x60 PUSH1 0x0 CODECOPY PUSH1 0x0 RETURN INVALID PUSH1 0x80 PUSH1 0x40 MSTORE CALLVALUE DUP1 ISZERO PUSH2 0x10 JUMPI PUSH1 0x0 DUP1 REVERT JUMPDEST POP PUSH1 0x4 CALLDATASIZE LT PUSH2 0x36 JUMPI PUSH1 0x0 CALLDATALOAD PUSH1 0xE0 SHR DUP1 PUSH4 0x40D9F60 EQ PUSH2 0x3B JUMPI DUP1 PUSH4 0xDF096576 EQ PUSH2 0x57 JUMPI JUMPDEST PUSH1 0x0 DUP1 REVERT JUMPDEST PUSH2 0x55 PUSH1 0x4 DUP1 CALLDATASIZE SUB DUP2 ADD SWAP1 PUSH2 0x50 SWAP2 SWAP1 PUSH2 0x22D JUMP JUMPDEST PUSH2 0x75 JUMP JUMPDEST STOP JUMPDEST PUSH2 0x5F PUSH2 0x184 JUMP JUMPDEST PUSH1 0x40 MLOAD PUSH2 0x6C SWAP2 SWAP1 PUSH2 0x312 JUMP JUMPDEST PUSH1 0x40 MLOAD DUP1 SWAP2 SUB SWAP1 RETURN JUMPDEST CALLER DUP1 PUSH20 0xFFFFFFFFFFFFFFFFFFFFFFFFFFFFFFFFFFFFFFFF AND PUSH1 0x0 DUP1 SLOAD SWAP1 PUSH2 0x100 EXP SWAP1 DIV PUSH20 0xFFFFFFFFFFFFFFFFFFFFFFFFFFFFFFFFFFFFFFFF AND PUSH20 0xFFFFFFFFFFFFFFFFFFFFFFFFFFFFFFFFFFFFFFFF AND EQ PUSH2 0x104 JUMPI PUSH1 0x40 MLOAD PUSH32 0x8C379A000000000000000000000000000000000000000000000000000000000 DUP2 MSTORE PUSH1 0x4 ADD PUSH2 0xFB SWAP1 PUSH2 0x348 JUMP JUMPDEST PUSH1 0x40 MLOAD DUP1 SWAP2 SUB SWAP1 REVERT JUMPDEST PUSH1 0x0 DUP4 PUSH1 0x40 MLOAD PUSH1 0x20 ADD PUSH2 0x117 SWAP2 SWAP1 PUSH2 0x2FB JUMP JUMPDEST PUSH1 0x40 MLOAD PUSH1 0x20 DUP2 DUP4 SUB SUB DUP2 MSTORE SWAP1 PUSH1 0x40 MSTORE DUP1 MLOAD SWAP1 PUSH1 0x20 ADD KECCAK256 SWAP1 POP DUP3 PUSH1 0x1 PUSH1 0x0 DUP4 DUP2 MSTORE PUSH1 0x20 ADD SWAP1 DUP2 MSTORE PUSH1 0x20 ADD PUSH1 0x0 KECCAK256 DUP2 SWAP1 SSTORE POP PUSH32 0xE04BE7C051A61DE1D1048634504027F18FBC1C23C5D3CDF1F27A826CBF31E05C DUP2 PUSH1 0x40 MLOAD PUSH2 0x176 SWAP2 SWAP1 PUSH2 0x32D JUMP JUMPDEST PUSH1 0x40 MLOAD DUP1 SWAP2 SUB SWAP1 LOG1 POP POP POP POP JUMP JUMPDEST PUSH1 0x0 DUP1 SLOAD SWAP1 PUSH2 0x100 EXP SWAP1 DIV PUSH20 0xFFFFFFFFFFFFFFFFFFFFFFFFFFFFFFFFFFFFFFFF AND DUP2 JUMP JUMPDEST PUSH1 0x0 PUSH2 0x1BB PUSH2 0x1B6 DUP5 PUSH2 0x38D JUMP JUMPDEST PUSH2 0x368 JUMP JUMPDEST SWAP1 POP DUP3 DUP2 MSTORE PUSH1 0x20 DUP2 ADD DUP5 DUP5 DUP5 ADD GT ISZERO PUSH2 0x1D7 JUMPI PUSH2 0x1D6 PUSH2 0x4D2 JUMP JUMPDEST JUMPDEST PUSH2 0x1E2 DUP5 DUP3 DUP6 PUSH2 0x42B JUMP JUMPDEST POP SWAP4 SWAP3 POP POP POP JUMP JUMPDEST PUSH1 0x0 DUP3 PUSH1 0x1F DUP4 ADD SLT PUSH2 0x1FF JUMPI PUSH2 0x1FE PUSH2 0x4CD JUMP JUMPDEST JUMPDEST DUP2 CALLDATALOAD PUSH2 0x20F DUP5 DUP3 PUSH1 0x20 DUP7 ADD PUSH2 0x1A8 JUMP JUMPDEST SWAP2 POP POP SWAP3 SWAP2 POP POP JUMP JUMPDEST PUSH1 0x0 DUP2 CALLDATALOAD SWAP1 POP PUSH2 0x227 DUP2 PUSH2 0x541 JUMP JUMPDEST SWAP3 SWAP2 POP POP JUMP JUMPDEST PUSH1 0x0 DUP1 PUSH1 0x40 DUP4 DUP6 SUB SLT ISZERO PUSH2 0x244 JUMPI PUSH2 0x243 PUSH2 0x4DC JUMP JUMPDEST JUMPDEST PUSH1 0x0 DUP4 ADD CALLDATALOAD PUSH8 0xFFFFFFFFFFFFFFFF DUP2 GT ISZERO PUSH2 0x262 JUMPI PUSH2 0x261 PUSH2 0x4D7 JUMP JUMPDEST JUMPDEST PUSH2 0x26E DUP6 DUP3 DUP7 ADD PUSH2 0x1EA JUMP JUMPDEST SWAP3 POP POP PUSH1 0x20 PUSH2 0x27F DUP6 DUP3 DUP7 ADD PUSH2 0x218 JUMP JUMPDEST SWAP2 POP POP SWAP3 POP SWAP3 SWAP1 POP JUMP JUMPDEST PUSH2 0x292 DUP2 PUSH2 0x3E5 JUMP JUMPDEST DUP3 MSTORE POP POP JUMP JUMPDEST PUSH2 0x2A1 DUP2 PUSH2 0x3F7 JUMP JUMPDEST DUP3 MSTORE POP POP JUMP JUMPDEST PUSH1 0x0 PUSH2 0x2B2 DUP3 PUSH2 0x3BE JUMP JUMPDEST PUSH2 0x2BC DUP2 DUP6 PUSH2 0x3DA JUMP JUMPDEST SWAP4 POP PUSH2 0x2CC DUP2 DUP6 PUSH1 0x20 DUP7 ADD PUSH2 0x43A JUMP JUMPDEST DUP1 DUP5 ADD SWAP2 POP POP SWAP3 SWAP2 POP POP JUMP JUMPDEST PUSH1 0x0 PUSH2 0x2E5 PUSH1 0x2C DUP4 PUSH2 0x3C9 JUMP JUMPDEST SWAP2 POP PUSH2 0x2F0 DUP3 PUSH2 0x4F2 JUMP JUMPDEST PUSH1 0x40 DUP3 ADD SWAP1 POP SWAP2 SWAP1 POP JUMP JUMPDEST PUSH1 0x0 PUSH2 0x307 DUP3 DUP5 PUSH2 0x2A7 JUMP JUMPDEST SWAP2 POP DUP2 SWAP1 POP SWAP3 SWAP2 POP POP JUMP JUMPDEST PUSH1 0x0 PUSH1 0x20 DUP3 ADD SWAP1 POP PUSH2 0x327 PUSH1 0x0 DUP4 ADD DUP5 PUSH2 0x289 JUMP JUMPDEST SWAP3 SWAP2 POP POP JUMP JUMPDEST PUSH1 0x0 PUSH1 0x20 DUP3 ADD SWAP1 POP PUSH2 0x342 PUSH1 0x0 DUP4 ADD DUP5 PUSH2 0x298 JUMP JUMPDEST SWAP3 SWAP2 POP POP JUMP JUMPDEST PUSH1 0x0 PUSH1 0x20 DUP3 ADD SWAP1 POP DUP2 DUP2 SUB PUSH1 0x0 DUP4 ADD MSTORE PUSH2 0x361 DUP2 PUSH2 0x2D8 JUMP JUMPDEST SWAP1 POP SWAP2 SWAP1 POP JUMP JUMPDEST PUSH1 0x0 PUSH2 0x372 PUSH2 0x383 JUMP JUMPDEST SWAP1 POP PUSH2 0x37E DUP3 DUP3 PUSH2 0x46D JUMP JUMPDEST SWAP2 SWAP1 POP JUMP JUMPDEST PUSH1 0x0 PUSH1 0x40 MLOAD SWAP1 POP SWAP1 JUMP JUMPDEST PUSH1 0x0 PUSH8 0xFFFFFFFFFFFFFFFF DUP3 GT ISZERO PUSH2 0x3A8 JUMPI PUSH2 0x3A7 PUSH2 0x49E JUMP JUMPDEST JUMPDEST PUSH2 0x3B1 DUP3 PUSH2 0x4E1 JUMP JUMPDEST SWAP1 POP PUSH1 0x20 DUP2 ADD SWAP1 POP SWAP2 SWAP1 POP JUMP JUMPDEST PUSH1 0x0 DUP2 MLOAD SWAP1 POP SWAP2 SWAP1 POP JUMP JUMPDEST PUSH1 0x0 DUP3 DUP3 MSTORE PUSH1 0x20 DUP3 ADD SWAP1 POP SWAP3 SWAP2 POP POP JUMP JUMPDEST PUSH1 0x0 DUP2 SWAP1 POP SWAP3 SWAP2 POP POP JUMP JUMPDEST PUSH1 0x0 PUSH2 0x3F0 DUP3 PUSH2 0x401 JUMP JUMPDEST SWAP1 POP SWAP2 SWAP1 POP JUMP JUMPDEST PUSH1 0x0 DUP2 SWAP1 POP SWAP2 SWAP1 POP JUMP JUMPDEST PUSH1 0x0 PUSH20 0xFFFFFFFFFFFFFFFFFFFFFFFFFFFFFFFFFFFFFFFF DUP3 AND SWAP1 POP SWAP2 SWAP1 POP JUMP JUMPDEST PUSH1 0x0 DUP2 SWAP1 POP SWAP2 SWAP1 POP JUMP JUMPDEST DUP3 DUP2 DUP4 CALLDATACOPY PUSH1 0x0 DUP4 DUP4 ADD MSTORE POP POP POP JUMP JUMPDEST PUSH1 0x0 JUMPDEST DUP4 DUP2 LT ISZERO PUSH2 0x458 JUMPI DUP1 DUP3 ADD MLOAD DUP2 DUP5 ADD MSTORE PUSH1 0x20 DUP2 ADD SWAP1 POP PUSH2 0x43D JUMP JUMPDEST DUP4 DUP2 GT ISZERO PUSH2 0x467 JUMPI PUSH1 0x0 DUP5 DUP5 ADD MSTORE JUMPDEST POP POP POP POP JUMP JUMPDEST PUSH2 0x476 DUP3 PUSH2 0x4E1 JUMP JUMPDEST DUP2 ADD DUP2 DUP2 LT PUSH8 0xFFFFFFFFFFFFFFFF DUP3 GT OR ISZERO PUSH2 0x495 JUMPI PUSH2 0x494 PUSH2 0x49E JUMP JUMPDEST JUMPDEST DUP1 PUSH1 0x40 MSTORE POP POP POP JUMP JUMPDEST PUSH32 0x4E487B7100000000000000000000000000000000000000000000000000000000 PUSH1 0x0 MSTORE PUSH1 0x41 PUSH1 0x4 MSTORE PUSH1 0x24 PUSH1 0x0 REVERT JUMPDEST PUSH1 0x0 DUP1 REVERT JUMPDEST PUSH1 0x0 DUP1 REVERT JUMPDEST PUSH1 0x0 DUP1 REVERT JUMPDEST PUSH1 0x0 DUP1 REVERT JUMPDEST PUSH1 0x0 PUSH1 0x1F NOT PUSH1 0x1F DUP4 ADD AND SWAP1 POP SWAP2 SWAP1 POP JUMP JUMPDEST PUSH32 0x4E6F207469656E6573207065726D69736F206170726120656A65637574617220 PUSH1 0x0 DUP3 ADD MSTORE PUSH32 0x657374612066756E63696F6E0000000000000000000000000000000000000000 PUSH1 0x20 DUP3 ADD MSTORE POP JUMP JUMPDEST PUSH2 0x54A DUP2 PUSH2 0x421 JUMP JUMPDEST DUP2 EQ PUSH2 0x555 JUMPI PUSH1 0x0 DUP1 REVERT JUMPDEST POP JUMP INVALID LOG2 PUSH5 0x6970667358 0x22 SLT KECCAK256 0xAF SWAP7 0xAD 0xF9 0x49 SLOAD 0x4E CALLER PUSH12 0x85274D7DA5C0CEE60FE0A748 CALLVALUE DUP1 0xE8 PUSH7 0xC6527BB3747742 PUSH5 0x736F6C6343 STOP ADDMOD SMOD STOP CALLER "
				},
				"gasEstimates": {
					"creation": {
						"codeDepositCost": "284400",
						"executionCost": "24590",
						"totalCost": "308990"
					},
					"external": {
						"Evaluar(string,uint256)": "infinite",
						"profesor()": "2511"
					}
				},
				"methodIdentifiers": {
					"Evaluar(string,uint256)": "040d9f60",
					"profesor()": "df096576"
				}
			},
			"storageLayout": {
				"storage": [
					{
						"astId": 6,
						"contract": "NOTAS/notas.sol:notas",
						"label": "profesor",
						"offset": 0,
						"slot": "0",
						"type": "t_address"
					},
					{
						"astId": 10,
						"contract": "NOTAS/notas.sol:notas",
						"label": "Notas",
						"offset": 0,
						"slot": "1",
						"type": "t_mapping(t_bytes32,t_uint256)"
					},
					{
						"astId": 13,
						"contract": "NOTAS/notas.sol:notas",
						"label": "revisiones",
						"offset": 0,
						"slot": "2",
						"type": "t_array(t_string_storage)dyn_storage"
					}
				],
				"types": {
					"t_address": {
						"encoding": "inplace",
						"label": "address",
						"numberOfBytes": "20"
					},
					"t_array(t_string_storage)dyn_storage": {
						"base": "t_string_storage",
						"encoding": "dynamic_array",
						"label": "string[]",
						"numberOfBytes": "32"
					},
					"t_bytes32": {
						"encoding": "inplace",
						"label": "bytes32",
						"numberOfBytes": "32"
					},
					"t_mapping(t_bytes32,t_uint256)": {
						"encoding": "mapping",
						"key": "t_bytes32",
						"label": "mapping(bytes32 => uint256)",
						"numberOfBytes": "32",
						"value": "t_uint256"
					},
					"t_string_storage": {
						"encoding": "bytes",
						"label": "string",
						"numberOfBytes": "32"
					},
					"t_uint256": {
						"encoding": "inplace",
						"label": "uint256",
						"numberOfBytes": "32"
					}
				}
			},
			"userdoc": {
				"kind": "user",
				"methods": {},
				"version": 1
			}
		}
	}
}